:100000000C9435000C945D000C945D000C945D0024
:100010000C945D000C945D000C945D000C945D00EC
:100020000C945D000C945D000C945D000C945D00DC
:100030000C945D000C945D000C945D000C945D00CC
:100040000C9465020C945D000C94D5020C94AF02E4
:100050000C945D000C945D000C945D000C945D00AC
:100060000C945D000C945D00720C11241FBECFEF48
:10007000D8E0DEBFCDBF13E0A0E0B1E0E4E1F3E201
:1000800002C005900D92AA37B107D9F724E0AAE77C
:10009000B3E001C01D92AA32B207E1F710E0C5E358
:1000A000D0E004C02197FE010E946D0EC433D10739
:1000B000C9F70E9407030C9488110C940000AF92BA
:1000C000BF92CF92DF92EF92FF920F931F93CF9345
:1000D000DF936C017B018B01040F151FEB015E01A7
:1000E000AE18BF08C017D10759F06991D601ED913C
:1000F000FC910190F081E02DC6010995892B79F7DB
:10010000C501DF91CF911F910F91FF90EF90DF908C
:10011000CF90BF90AF900895FC01538D448D252F53
:1001200030E0842F90E0821B930B541710F0CF9691
:10013000089501970895FC01918D828D981761F0C3
:10014000A28DAE0FBF2FB11D5D968C91928D9F5FDA
:100150009F73928F90E008958FEF9FEF0895FC01B9
:10016000918D828D981731F0828DE80FF11D858D6C
:1001700090E008958FEF9FEF0895FC01918D228DFF
:10018000892F90E0805C9F4F821B91098F73992784
:10019000089583E893E00E94BD0021E0892B09F4D3
:1001A00020E0822F089580E090E0892B29F00E94C2
:1001B000C90081110C9400000895FC01A48DA80FC2
:1001C000B92FB11DA35ABF4F2C91848D90E0019699
:1001D0008F739927848FA689B7892C93A089B189B9
:1001E0008C91837080648C93938D848D981306C05A
:1001F0000288F389E02D80818F7D80830895EF92BE
:10020000FF920F931F93CF93DF93EC0181E0888FD0
:100210009B8D8C8D98131AC0E889F989808185FFA0
:1002200015C09FB7F894EE89FF896083E889F98942
:1002300080818370806480839FBF81E090E0DF9144
:10024000CF911F910F91FF90EF900895F62E0B8D97
:1002500010E00F5F1F4F0F731127E02E8C8D8E1152
:100260000CC00FB607FCFACFE889F989808185FFB9
:10027000F5CFCE010E94DD00F1CFEB8DEC0FFD2F0D
:10028000F11DE35AFF4FF0829FB7F8940B8FEA8974
:10029000FB8980818062CFCFCF93DF93EC01888D83
:1002A0008823B9F0AA89BB89E889F9898C9185FDF1
:1002B00003C0808186FD0DC00FB607FCF7CF8C917F
:1002C00085FFF2CF808185FFEDCFCE010E94DD005A
:1002D000E9CFDF91CF910895FC01E05CFE4F2081D2
:1002E00031812617370778F077FD0DC0349671837A
:1002F0006083DC01AA5BBE4F3297808191818D9330
:100300009C9371836083089587309105C1F1ACF4AB
:100310008330910559F154F48130910509F444C0BA
:1003200014F50196F1F182E691E00895853091058A
:1003300019F1FCF089E391E008958B30910541F1CA
:100340003CF48930910509F1ECF088E491E00895DE
:100350008338910519F18B3B9105E9F00C9719F75A
:1003600080E591E008958AE291E008958EE291E0BF
:10037000089582E391E0089586E391E008958CE387
:1003800091E0089580E491E0089584E491E0089577
:100390008CE491E0089584E591E0089587E591E08B
:1003A00008958AE591E0089586E291E00895FC01C0
:1003B00001900020E9F73197AF01481B590BBC01B0
:1003C00083E893E00C945F00CF93DF930E94D70102
:1003D000EC0187E691E00E94D7018C0F9D1FDF9111
:1003E000CF9108959F938F938AE691E09F938F9387
:1003F000E0E2F4E085818F9384818F930E94900ED8
:1004000081E090E00E948811FC01E65AFF4F2081B4
:1004100031812115310561F4609124047091250426
:100420008DE791E00E94A20E81E090E00E94881189
:10043000215031093183208366E0629FA001639FD0
:10044000500D1124840F951FFC0180819181089526
:10045000CF93DF9300D000D000D0CDB7DEB7298393
:100460003A834B835C836D837E83FC01E65AFF4FA6
:10047000408151814F30510560F0609124047091AA
:10048000250486EB91E00E94A20E81E090E00E949C
:1004900088119A012F5F3F4F3183208326E0249FEC
:1004A000D001259FB00D1124A80FB91FFE01319670
:1004B00001900D922A95E1F726960FB6F894DEBFCB
:1004C0000FBECDBFDF91CF9108951F920F920FB64F
:1004D0000F9211242F933F938F939F93AF93BF93CA
:1004E00080917F0390918003A0918103B09182035A
:1004F00030917E0323E0230F2D3758F50196A11D7F
:10050000B11D20937E0380937F0390938003A0937B
:100510008103B093820380917A0390917B03A09131
:100520007C03B0917D030196A11DB11D80937A03D8
:1005300090937B03A0937C03B0937D03BF91AF9115
:100540009F918F913F912F910F900FBE0F901F9011
:10055000189526E8230F0296A11DB11DD2CF1F9238
:100560000F920FB60F9211242F933F934F935F93E7
:100570006F937F938F939F93AF93BF93EF93FF936B
:1005800083E893E00E94DD00FF91EF91BF91AF916E
:100590009F918F917F916F915F914F913F912F919B
:1005A0000F900FBE0F901F9018951F920F920FB6CD
:1005B0000F9211242F938F939F93EF93FF93E091CA
:1005C0009303F09194038081E0919903F0919A0351
:1005D00082FD1BC0908180919C038F5F8F7320915F
:1005E0009D03821741F0E0919C03F0E0ED57FC4F32
:1005F000958F80939C03FF91EF919F918F912F9105
:100600000F900FBE0F901F9018958081F4CFCF935D
:10061000DF93CDB7DEB7C35DD1090FB6F894DEBF67
:100620000FBECDBF789484B5826084BD84B58160EF
:1006300084BD85B5826085BD85B5816085BD8091AD
:100640006E00816080936E00109281008091810025
:10065000826080938100809181008160809381001D
:10066000809180008160809380008091B1008460DF
:100670008093B1008091B00081608093B000809140
:100680007A00846080937A0080917A0082608093FF
:100690007A0080917A00816080937A0080917A005C
:1006A000806880937A001092C100E0919303F091EA
:1006B000940382E08083E0918F03F0919003108295
:1006C000E0919103F09192038FEC808310929B0351
:1006D000E0919703F091980386E08083E091950381
:1006E000F0919603808180618083E0919503F09181
:1006F0009603808188608083E0919503F091960352
:10070000808180688083E0919503F09196038081D9
:100710008F7D808383EF91E00E94E40188EF91E078
:100720000E94E401EE24E394F12CFA82E98241E094
:1007300050E060E070E04B835C836D837E8382E0F9
:1007400090E098878F83FC86EB8607E010E020E03E
:1007500030E00D871E872F87388B9A8B898BFE8A16
:10076000ED8A4F8B588F698F7A8F9C8F8B8F8CE19E
:1007700090E098A38F8F88E491E00E94DB0C8C01BD
:100780003C012AE5620E711CD3011D921C922C01C2
:10079000BEEB4B1ABEEF5B0AF201118210829C0184
:1007A000225C3E4FC453DF4F39832883CC5CD0405A
:1007B000CE010196D9018D939C933496CE53DF4F91
:1007C000F983E883C25CD0408FEF9FEF91838083F1
:1007D0002A5F3F4FCC53DF4F39832883C45CD0401E
:1007E000D9018D939C933697C253DF4FF983E883E9
:1007F000CE5CD04084E090E0918380831801F4EFD8
:100800002F0E311C8EE0E6E0F1E0D10101900D9257
:100810008A95E1F72A503109CA53DF4F398328837B
:10082000C65CD040D901ED92FC92CE52DF4F3983A5
:100830002883C25DD040F801E45CFE4FC053DF4F17
:10084000F983E883C05DD040F801E250FF4FCE52FB
:10085000DF4FA881B981C25DD0404D915C9190E09D
:1008600080E08417950719F48FEF9FEF22C0C080B6
:10087000D180E280F38001963E96CC53DF4FA88171
:10088000B981C45CD0408D909C90B12CA12CC8142F
:10089000D904EA04FB0429F72EE0289FF001299FE0
:1008A000F00D1124E00FF11FE250FF4F8081918184
:1008B0000197092E000CAA0BBB0BF201208131819C
:1008C0008F3FFFEF9F07AF07BF0751F1A90170E00E
:1008D00060E084179507A607B70714F5CE53DF4FDE
:1008E000A881B981C25CD0408D919C918F3F9807BF
:1008F000B9F00196F201918380838FEF9FEFCE5381
:10090000DF4FA881B981C25CD0408D939C93CC53BA
:10091000DF4FE881F981C45CD0409183808394CF1C
:10092000232B09F057C0C053DF4FA881B981C05DA8
:10093000D0408D919C91892B09F04CC07101D12C34
:10094000C12C48E0A42E42E0B42E5EE0852E52E099
:10095000952ECA53DF4FE881F981C65CD040808173
:100960009181C816D90620F082E292E00E94F2013D
:10097000FF92EF92BF92AF929F928F920E94C90E08
:10098000B70188E092E00E94870EBEE0EB0EF11CFA
:100990000F900F900F900F900F900F90892B09F0F0
:1009A00089C08EE08C9DF0018D9DF00D1124E00F2B
:1009B000F11FE250FF4F80819181F201918380838A
:1009C00081E090E0C053DF4FA881B981C05DD04085
:1009D0008D939C93D2014D915C91C253DF4FE8817E
:1009E000F981CE5CD040808191814817590798F4F5
:1009F000C453DF4FA881B981CC5CD0408D919C91CC
:100A0000009709F05BC0609124047091250481E394
:100A100092E00E94A20E8BE593E00E94E401D12CAB
:100A2000C12C2AE0822E912CA12CB12CF3018081C3
:100A30009181C816D90608F047C7D8012D903D907E
:100A40004D905C9057FE23C76DE283E893E00E94CF
:100A5000FF0022273327A901221933094409550928
:100A60002A961FAE2A9799E2E92EF12CEC0EFD1E74
:100A7000B0E2EB0EF11CCA01B901A50194010E947C
:100A80004B0E605DF70162937F0121153105410531
:100A9000510589F7E114F10419F0C7010E94D7014B
:100AA00087E691E00E94D701BFEFCB1ADB0A0A5F0D
:100AB0001F4FBCCFBFEFCB1ADB0A4BCF2AE0249FDE
:100AC000B001259F700D1124860F971FFC01DE01D8
:100AD000999601900D922A95E1F7FC01C084D1848A
:100AE0000190F081E02DEE31F10508F0CDC6E5581A
:100AF000FA4F0C946D0EFA069309430AF40A17088C
:100B0000CB06860759072C070207D106A106610A02
:100B1000890B7408870ACD0A7009C2084A09260998
:100B2000F408B307E507AC08AF0BC30BE10B99055D
:100B3000280CC8010E9404025C01C8010E94040242
:100B40007C01A114B10441F48FE492E00E94DF0E15
:100B5000C7010E94DF0E4EC1F1E0AF16B10409F0EB
:100B600049C1C8010E9404026C01029718F086E591
:100B700092E0FCCE38E0E316F10408F4A9C0970136
:100B8000285031092630310588F04EE0E41AF1088A
:100B900086E0E816F10408F0A3C68E2DE6E0EE1616
:100BA000F10408F462C08CE692E0E0CE84B1022E3B
:100BB00001C0AA0C0A94EAF7A82AA4B885B101C01A
:100BC000CC0C2A95EAF7C82AC5B881E0282FC4546E
:100BD000DF4F8883CC5BD040C354DF4F1882CD5B9E
:100BE000D040C254DF4F1882CE5BD040C154DF4F9B
:100BF0001882CF5BD04082E0682FC054DF4F8883DB
:100C0000C05CD040CF53DF4F1882C15CD04030E091
:100C100040E050E070E0C8010E94280285E6282FDD
:100C2000C655DF4F8883CA5AD040C555DF4F18825A
:100C3000CB5AD040C455DF4F1882CC5AD040C35550
:100C4000DF4F1882CD5AD04082E0682FC255DF4F67
:100C50008883CE5AD040C155DF4F1882CF5AD0403A
:100C600030E040E050E070E089C297B121E030E030
:100C7000082E01C0220F0A94EAF7922B97B998B177
:100C800001C0CC0C8A95EAF7C92AC8B882E0282F9F
:100C9000CA54DF4F8883C65BD040C954DF4F1882E7
:100CA000C75BD040C854DF4F1882C85BD040C754E0
:100CB000DF4F1882C95BD040682FC654DF4F88834E
:100CC000CA5BD040C554DF4F1882CB5BD0409FCF6A
:100CD00083E0282FC055DF4F8883C05BD040CF54BE
:100CE000DF4F1882C15BD040CE54DF4F1882C25B09
:100CF000D040CD54DF4F1882C35BD04082E0682FD4
:100D0000CC54DF4F8883C45BD040CB54DF4F188274
:100D1000C55BD04030E040E050E070E0C8010E9488
:100D200028028AB10E2C01C0AA0C0A94EAF7A82A5C
:100D3000AAB88BB101C0CC0CEA94EAF7C82ACBB8A8
:100D40006DCFD3018D919C91029726E0289FF001F1
:100D5000299FF00D1124D801AE0FBF1F14968D915D
:100D60009C9115970197029708F044C03696E00FC2
:100D7000F11F8481958101970297E0F54D915D9176
:100D80006D917C9180819181A281B38184179507B7
:100D9000A607B7077CF16BA57CA5C8010E946C0172
:100DA00053CDF30180819181029726E0289FF001C5
:100DB000299FF00D1124D801AE0FBF1F14968D91FD
:100DC0009C91159701970297A8F43696E00FF11FB2
:100DD000848195810197029768F44D915D916D91A1
:100DE0007C9180819181A281B381481759076A075C
:100DF0007B078CF2D2018D919C91119701968D9376
:100E00009C9322CDD3018D919C91029726E0289F3F
:100E1000F001299FF00D1124D801AE0FBF1F1496C9
:100E20008D919C9115970197029720F73696E00FC8
:100E3000F11F8481958101970297E0F64D915D91B4
:100E40006D917C9180819181A281B381481759076E
:100E50006A077B077CF29FCFF30180819181029723
:100E600026E0289FF001299FF00D1124D801AE0F34
:100E7000BF1F14968D919C9115970197029708F0CA
:100E8000B9CF3696E00FF11F8481958101970297C3
:100E900008F0B0CF4D915D916D917C9180819181F1
:100EA000A281B38184179507A607B7070CF0A2CFDC
:100EB00072CFD3018D919C91029726E0289FF0017B
:100EC000299FF00D1124D801AE0FBF1F14968D91EC
:100ED0009C9115970197029708F08CCF3696E00FFA
:100EE000F11F848195810197029708F083CF4D917E
:100EF0005D916D917C9180819181A281B381481730
:100F000059076A077B0709F075CF45CFF301808148
:100F10009181029726E0289FF001299FF00D11246E
:100F2000D801AE0FBF1F14968D919C911597019714
:100F3000029708F05FCF3696E00FF11F848195810C
:100F40000197029708F056CF4D915D916D917C917C
:100F500080819181A281B381481759076A077B0775
:100F600009F448CF18CFC8010E9404020BA402C0A4
:100F7000880F991F0A94E2F7092E000CAA0BBB0BED
:100F8000282FCC55DF4F88839983AA83BB83C45A0B
:100F9000D04082E0682FC855DF4F8883C85AD040C0
:100FA000C755DF4F1882C95AD040CB55DF4F388123
:100FB000C55AD040CA55DF4F4881C65AD040C9559E
:100FC000DF4F5881C75AD0404ECEC8010E9404025C
:100FD0000BA402C0959587950A94E2F7092E000CA0
:100FE000AA0BBB0B282FC256DF4F88839983AA8395
:100FF000BB83CE59D04082E0682FCE55DF4F888327
:10100000C25AD040CD55DF4F1882C35AD040C15686
:10101000DF4F3881CF59D040C056DF4F4881C05A8A
:10102000D040CF55DF4F5881C15AD0401CCEC801A7
:101030000E9404027C01C8010E940402092E000CD7
:10104000AA0BBB0B282FC856DF4F88839983AA832E
:10105000BB83C859D04032E0D32EC12C6D2DC4566D
:10106000DF4FD882CC59D040C356DF4FC882CD590C
:10107000D040C756DF4F3881C959D040C656DF4FE0
:101080004881CA59D040C556DF4F5881CB59D0400E
:1010900070E0C8010E942802C701FF0CAA0BBB0B1D
:1010A000282FCE56DF4F88839983AA83BB83C259EA
:1010B000D0406D2DCA56DF4FD882C659D040C95690
:1010C000DF4FC882C759D040CD56DF4F3881C35952
:1010D000D040CC56DF4F4881C459D040CB56DF4F6B
:1010E0005881C559D040BFCDC8010E9404027C017F
:1010F000C8010E9404029C01E29EC001E39E900D83
:10110000F29E900D1124092E000CAA0BBB0B282F68
:10111000C457DF4F88839983AA83BB83CC58D040C0
:1011200082E0682FC057DF4F8883C059D040CF5628
:10113000DF4F1882C159D040C357DF4F3881CD5897
:10114000D040C257DF4F4881CE58D040C157DF4F03
:101150005881CF58D04087CDD3018D919C91019774
:1011600026E0289FF001299FF00D1124E00FF11FC8
:10117000208131814281538164817581C8010E943F
:10118000280238CEC8010E9404027C01C8010E94D6
:1011900004028E219F21092E000CAA0BBB0B282FC5
:1011A000CA57DF4F88839983AA83BB83C658D04030
:1011B00082E0682FC657DF4F8883CA58D040C55792
:1011C000DF4F1882CB58D040C957DF4F3881C758FE
:1011D000D040C857DF4F4881C858D040C757DF4F6D
:1011E0005881C958D0403FCDC8010E9404027C01FB
:1011F000C8010E9404028E259F25092E000CAA0B0F
:10120000BB0B282FC058DF4F88839983AA83BB83E9
:10121000C058D04082E0682FCC57DF4F8883C45835
:10122000D040CB57DF4F1882C558D040CF57DF4F43
:101230003881C158D040CE57DF4F4881C258D04086
:10124000CD57DF4F5881C358D0400DCDC8010E9403
:10125000040280959095092E000CAA0BBB0B282F39
:10126000EE968CAF9DAFAEAFBFAFEE9782E0682F2A
:10127000EF968FAFEF97C158DF4F1882CF57D0400E
:10128000EC963FADEC97ED964FADED97EE965FADDA
:10129000EE97E9CCC8010E9404027C01C8010E94BB
:1012A00004028E299F29092E000CAA0BBB0B282FA4
:1012B000E8968CAF9DAFAEAFBFAFE89782E0682FE6
:1012C000E9968FAFE997EA961FAEEA97E6963FADAB
:1012D000E697E7964FADE797E8965FADE897C3CC02
:1012E000C8010E940402919581959109092E000C74
:1012F000AA0BBB0B282FE2968CAF9DAFAEAFBFAF52
:10130000E29782E0682FE3968FAFE397E4961FAEF3
:10131000E497E0963FADE097E1964FADE197E29616
:101320005FADE297A0CCFC0186819781049709F01C
:10133000A3C0EBA4FCA466E271E0C7010E94870E83
:10134000892B09F472C06AE271E0C7010E94870E1E
:10135000892B09F46DC06EE271E0C7010E94870E0F
:10136000892B09F468C062E371E0C7010E94870E0F
:10137000892B09F463C066E371E0C7010E94870E00
:10138000892B09F45EC069E371E0C7010E94870EF2
:10139000892B09F459C06CE371E0C7010E94870EE4
:1013A000892B09F454C060E471E0C7010E94870EE4
:1013B000892B09F44FC064E471E0C7010E94870ED5
:1013C000892B09F44AC068E471E0C7010E94870EC6
:1013D000892B09F445C06CE471E0C7010E94870EB7
:1013E000892B09F440C060E571E0C7010E94870EB7
:1013F000892BE1F164E571E0C7010E94870E892B1A
:10140000C1F167E571E0C7010E94870E892BA1F544
:1014100083E890E026E0289FF001299FF00D112439
:10142000E00FF11FE45AFF4FA3CE81E090E0F2CF2E
:1014300082E090E0EFCF83E090E0ECCF84E090E0BA
:10144000E9CF85E090E0E6CF86E090E0E3CF87E06B
:1014500090E0E0CF88E090E0DDCF89E090E0DACF67
:101460008AE090E0D7CF8BE090E0D4CF8CE090E0A2
:10147000D1CF8BEB90E0CECF2BA53CA54DA55EA5A3
:101480006FA578A97BCEC8010E940402C114D104C3
:1014900009F4B0CC26E02C9DF0012D9DF00D112417
:1014A000E45AFF4FE00FF11F092E000CAA0BBB0BF3
:1014B00080839183A283B38382E090E095838483C9
:1014C00099CCC8010E9404027C01C8010E94040258
:1014D0008E0D9F1D092E000CAA0BBB0B282FAC965E
:1014E0008CAF9DAFAEAFBFAFAC9782E0682FAD962B
:1014F0008FAFAD97AE961FAEAE97AA963FADAA97A7
:10150000AB964FADAB97AC965FADAC97ACCBD30180
:101510008D919C9126E0289FF001299FF00D1124C8
:10152000E00FF11F80819181A281B381892B8A2BE9
:101530008B2B61F4609124047091250488E792E07C
:101540000E94A20E81E090E00E948811C8010E94D2
:1015500004027C01C8010E940402B7010E94370EF8
:10156000CB01770FAA0BBB0B282FA6968CAF9DAF94
:10157000AEAFBFAFA69782E0682FA7968FAFA797B1
:10158000A8961FAEA897A4963FADA497A5964FAD79
:10159000A597A6965FADA69766CBC8010E940402E8
:1015A0007C01C8010E940402B7010E94370E092E77
:1015B000000CAA0BBB0B282FA0968CAF9DAFAEAF33
:1015C000BFAFA09782E0682FA1968FAFA197A29698
:1015D0001FAEA2976E963FAD6E976F964FAD6F9709
:1015E000A0965FADA0973FCB86E0FE01BB96DE01E3
:1015F000A65BBF4F01900D928A95E1F7C6010E944C
:1016000084016AE571E00E94870E892B39F46091AC
:101610002404709125048FE892E092CF2E968CAD31
:101620009DADAEADBFAD2E97C853DF4F8883998374
:10163000AA83BB83C85CD040C853DF4F888199819F
:10164000C85CD0400E9484016AE571E00E94870E68
:101650005C01892B09F03FC02C96EEACFFAC2C97B7
:10166000FF92EF9287EB92E09F938F930E94C90EB7
:10167000F70101900020E9F73197AF014E195F099A
:101680000F900F900F900F90D701C7018A0D9B1DEF
:101690009D012E193F0924173507A4F0DC011C9287
:1016A000C7010E949F0C26E02C9DF0012D9DF00D9E
:1016B0001124E45AFF4FE00FF11F6083718382838E
:1016C0009383FACE2D91243201F3EFEFAE1ABE0AC6
:1016D000FC012083DACF86E08C9DD0018D9DB00D7A
:1016E0001124A00FB11FA45ABF4FC853DF4F288148
:1016F0003981C85CD040829FF001839FF00D112496
:10170000E00FF11FE45AFF4F01900D928A95E1F727
:1017100071CBC8010E9404027C01C8010E9404022E
:101720008E199F09092E000CAA0BBB0B282F6A9655
:101730008CAF9DAFAEAFBFAF6A9782E0682F6B965C
:101740008FAF6B976C961FAE6C9768963FAD68979E
:1017500069964FAD69976A965FAD6A9784CAD3015F
:10176000CD90DC90F12CE12CC114D10409F442CBD2
:10177000EC14FD040CF03ECBC8010E940402BFEF44
:10178000EB1AFB0AF5CFF30180819181B0E0A0E074
:10179000282F64968CAF9DAFAEAFBFAF649782E049
:1017A000682F65968FAF659766961FAE66976296AF
:1017B0003FAD629763964FAD639764965FAD649754
:1017C00052CA87EE92E00E94DF0ED3018D919C9168
:1017D0006C01B1E0CB1AD10826E0289F7001299F47
:1017E000F00C1124E6E0EE1AF108E00EF11ED7FE2F
:1017F00003C080E093E0ADC9D70114968D919C9110
:1018000015978430910559F48D919C910E94DF0EBB
:1018100081E0C81AD10896E0E91AF108E8CF0197EB
:101820000297B0F7F70183818F9382818F93818133
:101830008F9380818F932BEF32E03F932F930E9401
:10184000C90E0F900F900F900F900F900F90E0CF58
:101850000E591F4FD80113968C9113978F931296A0
:101860008C9112978F9311968C9111978F938C91E5
:101870008F9384E193E09F938F930E94C90EF801A8
:10188000808191810E9488118CE293E06FC8A2014F
:1018900091012A961FAE2A9789E2E82EF12CEC0ED0
:1018A000FD1EF0E2EF0EF11CCA01B901A501940181
:1018B0000E944B0E605DD7016E937D0121153105AD
:1018C0004105510589F7E6C800E010E00115110552
:1018D000E9F30E94C9008823C9F30E940000F6CFF3
:1018E0008FEF5CC9E3E8F3E01382128288EE93E0A5
:1018F000A0E0B0E084839583A683B78388E191E07C
:101900009183808385EC90E09587848784EC90E0D8
:101910009787868780EC90E0918B808B81EC90E0BC
:10192000938B828B82EC90E0958B848B86EC90E09D
:10193000978B868B118E128E138E148E08951F93A3
:10194000FC0199278827BC01E89411911032E9F332
:10195000193010F01E30C8F31B3251F01D3249F41B
:10196000689406C00E94C60C610F711D811D911DF7
:10197000119110531A30B0F33EF490958095709504
:1019800061957F4F8F4F9F4F1F910895592F482F7B
:10199000372F262F660F771F881F991F660F771F17
:1019A000881F991F620F731F841F951F660F771F73
:1019B000881F991F08950F931F93CF93DF93823051
:1019C000910510F482E090E0E0912804F091290460
:1019D00030E020E0B0E0A0E0309799F42115310527
:1019E00009F44AC0281B390B24303105D8F58A8107
:1019F0009B816115710589F1FB0193838283FE014F
:101A000011C0408151810281138148175907E0F0CC
:101A10004817590799F4109761F012960C93129792
:101A200013961C933296CF01DF91CF911F910F91A6
:101A300008950093280410932904F4CF211531054B
:101A400051F04217530738F0A901DB019A01BD019B
:101A5000DF01F801C1CFEF01F9CF90932904809302
:101A60002804CDCFFE01E20FF31F81939193225002
:101A7000310939832883D7CF209126043091270458
:101A8000232B41F42091020130910301309327046C
:101A90002093260420910001309101012115310588
:101AA00041F42DB73EB74091040150910501241B2C
:101AB000350BE0912604F0912704E217F307A0F418
:101AC0002E1B3F0B2817390778F0AC014E5F5F4F94
:101AD0002417350748F04E0F5F1F5093270440939B
:101AE0002604819391939FCFF0E0E0E09CCFCF93C9
:101AF000DF930097E9F0FC01329713821282A091E4
:101B00002804B0912904ED0130E020E01097A1F401
:101B100020813181820F931F209126043091270468
:101B20002817390709F061C0F0932704E0932604D1
:101B3000DF91CF910895EA01CE17DF07E8F54A81DA
:101B40005B819E0141155105B1F7E901FB83EA83F1
:101B500049915991C40FD51FEC17FD0761F480819D
:101B600091810296840F951FE90199838883828170
:101B700093819B838A83F0E0E0E012968D919C91A3
:101B800013970097B9F52D913C911197CD010296CD
:101B9000820F931F209126043091270428173907BC
:101BA00039F6309751F51092290410922804B09319
:101BB0002704A0932604BCCFD383C28340815181E4
:101BC000840F951FC817D90761F44E5F5F4F888156
:101BD0009981480F591F518340838A819B81938348
:101BE00082832115310509F0B0CFF0932904E093E9
:101BF00028049ECFFD01DC01C0CF13821282D7CF13
:101C00002F923F924F925F926F927F928F929F920C
:101C1000AF92BF92CF92DF92EF92FF920F931F93FA
:101C2000CF93DF93CDB7DEB7CA1BDB0B0FB6F894AB
:101C3000DEBF0FBECDBF09942A88398848885F84EB
:101C40006E847D848C849B84AA84B984C884DF805C
:101C5000EE80FD800C811B81AA81B981CE0FD11D40
:101C60000FB6F894DEBF0FBECDBFED01089597FB10
:101C7000072E16F4009407D077FD09D00E94730E4A
:101C800007FC05D03EF4909581959F4F089570957F
:101C900061957F4F0895A1E21A2EAA1BBB1BFD017F
:101CA0000DC0AA1FBB1FEE1FFF1FA217B307E4073B
:101CB000F50720F0A21BB30BE40BF50B661F771F93
:101CC000881F991F1A9469F7609570958095909573
:101CD0009B01AC01BD01CF010895EE0FFF1F0590E0
:101CE000F491E02D0994AA1BBB1B51E107C0AA1F68
:101CF000BB1FA617B70710F0A61BB70B881F991FAD
:101D00005A95A9F780959095BC01CD010895FB01E6
:101D1000DC018D91019080190110D9F3990B089580
:101D2000B0E0A0E0E6E9FEE00C94100EAE01475FE3
:101D30005F4F6F8178858D819E810E940A0FE2E05E
:101D40000C942C0EEF92FF920F931F93CF93DF937F
:101D5000FB01238121FF19C0EB018C01F12CE12C47
:101D6000F80181918F01811106C0C701CDB7DEB79F
:101D7000E6E00C94280EE885F985BE010995892BCB
:101D800079F3EE24EA94FE2CEBCFEE24EA94FE2CB9
:101D9000ECCFB0E0A0E0EFECFEE00C94100EAE0152
:101DA0004B5F5F4FFA0161917191AF018091220405
:101DB000909123040E940A0FE2E00C942C0E0F93E2
:101DC0001F93CF93DF93E0912204F09123042381AA
:101DD000EC0110E000E021FD08C00FEF1FEF14C080
:101DE0000995892B11F00FEF1FEF89916091220463
:101DF00070912304DB011896ED91FC918111F0CFD5
:101E00008AE00995892B49F7C801DF91CF911F918D
:101E10000F910895ABE0B0E0E0E1FFE00C94000E1C
:101E20007C013B018A01FC0117821682838181FFBC
:101E3000C8C1CE0101965C01F7019381F30193FDC6
:101E4000859193FF81913F01882309F453C1853225
:101E500039F493FD859193FF81913F01853229F4F7
:101E6000B70190E00E94FA10E7CF912C212C312C81
:101E7000FFE1F31538F08B3211F190F4803209F163
:101E8000833229F137FC3CC020ED280F2A3050F571
:101E900036FE20C08AE0989E200D1124922E06C0A6
:101EA0008D3291F0803371F7689430F8F30193FD2F
:101EB000859193FF81913F018111DACF21C0689410
:101EC00031F8689432F8F2CF689433F8EFCF689421
:101ED00034F8ECCFEAE02E9E200D1124222E6894D7
:101EE00035F8E4CF8E3229F436FC04C1689436F814
:101EF000DDCF8C3619F4689437F8D8CF8836B1F234
:101F0000982F9F7D95549330E0F08336A1F183376D
:101F1000C1F1833509F063C02801F2E04F0E511C76
:101F2000F801C080D180692D70E036FC02C06FEFEF
:101F30007FEFC6010E94E4104C01689437F88201DB
:101F40000AC00C5F1F4FFFE3F98388248394912C10
:101F50006501E89437F833FE2DC0522C81149104AA
:101F600071F5552009F468CFB70180E290E00E9436
:101F7000FA105A94F6CFF801808189830E5F1F4FC3
:101F8000E4CF2801F2E04F0E511CF801C080D1804F
:101F9000692D70E036FC02C06FEF7FEFC6010E9432
:101FA000EF104C018201D5CFB70180E290E00E9492
:101FB000FA102A942814190409F0B0F7CECFF601CC
:101FC00037FC859137FE81916F01B70190E00E9447
:101FD000FA1051105A94F1E08F1A9108BFCF84364D
:101FE00019F0893609F077C0F80137FE6BC06081BF
:101FF0007181828193810C5F1F4FF32DFF763F2EFD
:1020000097FF09C090958095709561957F4F8F4F90
:102010009F4F689437F82AE030E0A5010E942A110A
:10202000C82ECA188C2C432C36FE0CC0E89440F8FD
:10203000C91440F434FE05C032FC03C0F32DFE7E0B
:102040004F2E892C44FE95C0FE01EC0DF11D8081C0
:10205000803309F087C0242D297E422E842D88707C
:10206000582E43FC95C040FE8FC09C2C821418F45F
:102070002C0C922C981844FE91C0B70180E390E09C
:102080000E94FA1042FE09C088E790E041FE02C0BB
:1020900088E590E0B7010E94FA10C91408F48AC0DC
:1020A000CA94D12C9FEFC91AD90ACA0CDB1CF601BD
:1020B00082916F01B70190E00E94FA10AC14BD0448
:1020C000B1F74FCF60817181072E000C880B990BFF
:1020D0000E5F1F4F92CFD32CE894D4F82AE030E063
:1020E000853739F1232D297FD22E8F3601F148F41F
:1020F0008835A9F0F701868197812B96E2E10C944F
:102100001C0E803749F08837A9F7D4FE02C06894C6
:10211000D2F820E130E00DC06894D4F8F6CF34FE58
:1021200003C0822F8660D82E20E132E002C028E072
:1021300030E0F801D7FE0FC0608171818281938108
:102140000C5F1F4FA5010E942A11C82ECA183D2CF2
:10215000E89437F867CF6081718190E080E00E5F8E
:102160001F4FF0CF42FC02C0839478CF83948394B6
:1021700075CF842D867809F471CFF6CFB70180E250
:1021800090E00E94FA1083948214C0F3512C73CF14
:10219000522C5818821408F46ECFF8CF842D86780C
:1021A00009F47BCF8BE241FE80E247FC8DE2B70170
:1021B00090E071CFB70180E390E00E94FA109A940A
:1021C0006CCF8FEF9FEF99CFFC010590615070406D
:1021D0000110D8F7809590958E0F9F1F0895FC01F0
:1021E0006150704001900110D8F7809590958E0F46
:1021F0009F1F08950F931F93CF93DF93182F092FDD
:10220000EB018B8181FD09C01FEF0FEF812F902F14
:10221000DF91CF911F910F91089582FF14C02E81FD
:102220003F818C819D81281739073CF4E881F98131
:10223000CF0101969983888310838E819F810196B7
:102240009F838E83E3CFE885F985812F0995892BBC
:10225000A1F3DACFFA01AA27283051F1203181F118
:10226000E8946F936E7F6E5F7F4F8F4F9F4FAF4F9E
:10227000B1E03ED0B4E03CD0670F781F891F9A1FB1
:10228000A11D680F791F8A1F911DA11D6A0F711D65
:10229000811D911DA11D20D009F468943F912AE071
:1022A000269F11243019305D3193DEF6CF01089559
:1022B000462F4770405D4193B3E00FD0C9F7F6CF8A
:1022C000462F4F70405D4A3318F0495D31FD405252
:1022D000419302D0A9F7EACFB4E0A69597958795E8
:1022E00077956795BA95C9F70097610571050895C7
:1022F0009B01AC010A2E0694579547953795279573
:10230000BA95C9F7620F731F841F951FA01D08950A
:04231000F894FFCF6F
:1023140000002A04800073746172740000000500D8
:102324000000000000000000FF005F008C004C0172
:10233400BD009B00AF007261780072627800726326
:10234400780072647800723800723900723130009B
:102354007231310072313200723133007231340023
:1023640072313500657000637000756E6B6E6F7747
:102374006E006E6F6E65000D0A0072756E74696D85
:1023840065206572726F722E2025730A0053746182
:10239400636B20756E646572666C6F772077686511
:1023A4006E20747279696E6720746F20706F70206C
:1023B40066726F6D20737461636B2E2041626F725D
:1023C4007465642E0A00537461636B206F766572C2
:1023D400666C6F77207768656E20747279696E67B2
:1023E40020746F20707573682076616C7565207435
:1023F4006F20737461636B2E2041626F7274656425
:102404002E0A004C69766500496E746572707265B7
:1024140074696E672E2E2E00737461727400636F7C
:102424006D706172696E6720257320746F20257347
:102434000A006E6F20656E74727920706F696E7415
:102444000050616E69633A20496E737472756374E7
:10245400696F6E7320696E76616C6964210A00731A
:1024640074646F757400696E76616C69642073744A
:1024740061746520666F722070696E00696E7661A2
:102484006C69642070696E004469766964652062D1
:1024940079207A65726F206572726F722E0A004914
:1024A4006E76616C69642064657374696E617469C5
:1024B4006F6E2072656769737465722E2041626F56
:1024C400727465642E0A004E6F74206120736F75F8
:1024D4007263652072656769737465722E20546136
:1024E4006B696E67206173206120636F6E73746122
:1024F4006E742025730A002D2D2D20537461636B97
:10250400205374617274202D2D2D00256C640A00F3
:102514002D2D2D20537461636B20456E6420202083
:102524002D2D2D0065786974696E6720776974684C
:1025340020636F646520256C642E0A000A09496EC5
:10254400202752756E496E737472756374696F6E69
:1025540073282927203A20756E6B6E6F776E206979
:102564006E737472756374696F6E0053756363651B
:10257400737366756C6C792072616E20696E737406
:0A25840072756374696F6E732E00A8
:00000001FF
