:100000000C9435000C945D000C945D000C945D0024
:100010000C945D000C945D000C945D000C945D00EC
:100020000C945D000C945D000C945D000C945D00DC
:100030000C945D000C945D000C945D000C945D00CC
:100040000C9469020C945D000C94D9020C94B302D8
:100050000C945D000C945D000C945D000C945D00AC
:100060000C945D000C945D004D0B11241FBECFEF6E
:10007000D8E0DEBFCDBF13E0A0E0B1E0E6E8F0E2FB
:1000800002C005900D92A637B107D9F724E0A6E784
:10009000B3E001C01D92A632B207E1F710E0C5E35C
:1000A000D0E004C02197FE010E94260DC433D10781
:1000B000C9F70E940B030C9441100C940000AF92FE
:1000C000BF92CF92DF92EF92FF920F931F93CF9345
:1000D000DF936C017B018B01040F151FEB015E01A7
:1000E000AE18BF08C017D10759F06991D601ED913C
:1000F000FC910190F081E02DC6010995892B79F7DB
:10010000C501DF91CF911F910F91FF90EF90DF908C
:10011000CF90BF90AF900895FC01538D448D252F53
:1001200030E0842F90E0821B930B541710F0CF9691
:10013000089501970895FC01918D828D981761F0C3
:10014000A28DAE0FBF2FB11D5D968C91928D9F5FDA
:100150009F73928F90E008958FEF9FEF0895FC01B9
:10016000918D828D981731F0828DE80FF11D858D6C
:1001700090E008958FEF9FEF0895FC01918D228DFF
:10018000892F90E0805C9F4F821B91098F73992784
:1001900008958FE793E00E94BD0021E0892B09F4C8
:1001A00020E0822F089580E090E0892B29F00E94C2
:1001B000C90081110C9400000895FC01A48DA80FC2
:1001C000B92FB11DA35ABF4F2C91848D90E0019699
:1001D0008F739927848FA689B7892C93A089B189B9
:1001E0008C91837080648C93938D848D981306C05A
:1001F0000288F389E02D80818F7D80830895EF92BE
:10020000FF920F931F93CF93DF93EC0181E0888FD0
:100210009B8D8C8D98131AC0E889F989808185FFA0
:1002200015C09FB7F894EE89FF896083E889F98942
:1002300080818370806480839FBF81E090E0DF9144
:10024000CF911F910F91FF90EF900895F62E0B8D97
:1002500010E00F5F1F4F0F731127E02E8C8D8E1152
:100260000CC00FB607FCFACFE889F989808185FFB9
:10027000F5CFCE010E94DD00F1CFEB8DEC0FFD2F0D
:10028000F11DE35AFF4FF0829FB7F8940B8FEA8974
:10029000FB8980818062CFCFCF93DF93EC01888D83
:1002A0008823B9F0AA89BB89E889F9898C9185FDF1
:1002B00003C0808186FD0DC00FB607FCF7CF8C917F
:1002C00085FFF2CF808185FFEDCFCE010E94DD005A
:1002D000E9CFDF91CF910895FC01E05CFE4F2081D2
:1002E00031812617370788F077FD0FC0E859FF4F97
:1002F00071836083DC01A655BE4FE656F10980810B
:1003000091818D939C9371836083089587309105CB
:10031000C1F1ACF48330910559F154F48130910569
:1003200009F444C014F50196F1F182E691E00895D4
:100330008530910519F1FCF089E391E008958B3047
:10034000910541F13CF48930910509F1ECF088E424
:1003500091E008958338910519F18B3B9105E9F0FF
:100360000C9719F780E591E008958AE291E00895ED
:100370008EE291E0089582E391E0089586E391E0B2
:1003800008958CE391E0089580E491E0089584E479
:1003900091E008958CE491E0089584E591E008955A
:1003A00087E591E008958AE591E0089586E291E07D
:1003B0000895CF93DF93FC0101900020E9F7319776
:1003C000AF01481B590BBC018FE793E00E945F000F
:1003D000EC0142E050E067E671E08FE793E00E94B5
:1003E0005F008C0F9D1FDF91CF9108959F938F9396
:1003F0008AE691E09F938F93ECE1F4E085818F93FF
:1004000084818F930E94490D81E090E00E94411009
:10041000FC01E65AFF4F208131812115310561F43D
:1004200060912004709121048DE791E00E945B0DA2
:1004300081E090E00E9441102150310931832083F6
:1004400066E0629FA001639F500D1124840F951FE9
:10045000FC01808191810895CF93DF9300D000D07B
:1004600000D0CDB7DEB729833A834B835C836D839D
:100470007E83FC01E65AFF4F408151814F30510588
:1004800060F0609120047091210486EB91E00E945D
:100490005B0D81E090E00E9441109A012F5F3F4F79
:1004A0003183208326E0249FD001259FB00D1124A5
:1004B000A80FB91FFE01319601900D922A95E1F720
:1004C00026960FB6F894DEBF0FBECDBFDF91CF9159
:1004D00008951F920F920FB60F9211242F933F93FE
:1004E0008F939F93AF93BF9380917B0390917C03F5
:1004F000A0917D03B0917E0330917A0323E0230F16
:100500002D3758F50196A11DB11D20937A038093D4
:100510007B0390937C03A0937D03B0937E03809133
:10052000760390917703A0917803B09179030196B7
:10053000A11DB11D8093760390937703A093780358
:10054000B0937903BF91AF919F918F913F912F917C
:100550000F900FBE0F901F90189526E8230F02965C
:10056000A11DB11DD2CF1F920F920FB60F92112471
:100570002F933F934F935F936F937F938F939F93AB
:10058000AF93BF93EF93FF938FE793E00E94DD005B
:10059000FF91EF91BF91AF919F918F917F916F915B
:1005A0005F914F913F912F910F900FBE0F901F9031
:1005B00018951F920F920FB60F9211242F938F93BD
:1005C0009F93EF93FF93E0918F03F09190038081CD
:1005D000E0919503F091960382FD1BC0908180917C
:1005E00098038F5F8F7320919903821741F0E091F8
:1005F0009803F0E0E158FC4F958F80939803FF91AA
:10060000EF919F918F912F910F900FBE0F901F90A0
:1006100018958081F4CFCF93DF93CDB7DEB7CA5A58
:10062000D1090FB6F894DEBF0FBECDBF789484B564
:10063000826084BD84B5816084BD85B5826085BDDE
:1006400085B5816085BD80916E00816080936E006C
:10065000109281008091810082608093810080915E
:10066000810081608093810080918000816080930F
:1006700080008091B10084608093B1008091B000CF
:1006800081608093B00080917A00846080937A00CA
:1006900080917A00826080937A0080917A008160F4
:1006A00080937A0080917A00806880937A0010921B
:1006B000C100E0918F03F091900382E08083E0918C
:1006C0008B03F0918C031082E0918D03F0918E03E7
:1006D0008FEC808310929703E0919303F091940341
:1006E00086E08083E0919103F091920380818061A4
:1006F0008083E0919103F0919203808188608083F0
:10070000E0919103F0919203808180688083E09171
:100710009103F091920380818F7D808383EF91E03C
:100720000E94D90188EF91E00E94D901EE24E39460
:10073000F12CFA82E98241E050E060E070E04B8306
:100740005C836D837E8382E090E098878F83FE8652
:10075000ED860BE010E020E030E00F87188B298B4E
:100760003A8B9C8B8B8BFA8EE98E4B8F5C8F6D8FC7
:100770007E8F98A38F8F8CE190E09EA38DA38CEA4F
:1007800091E00E94B60B8C012C012AE5420E511C0F
:10079000D2011D921C921C01BEEB2B1ABEEF3B0A2C
:1007A000F101118210829C01225C3E4FCF55DF4F38
:1007B00039832883C15AD040CE010196D9018D9347
:1007C0009C93E859FF4FC356DF4FF983E883CD5917
:1007D000D0408FEF9FEF9183808326593F4FC156C2
:1007E000DF4F39832883CF59D040D9018D939C9313
:1007F000EA56F109CD55DF4FF983E883C35AD0405B
:1008000084E090E091838083245B3109CB55DF4FF6
:1008100039832883C55AD0408EE0E6E0F1E0D90163
:1008200001900D928A95E1F7C801865C9E4FC955EB
:10083000DF4F99838883C75AD040DC01ED92FC9248
:10084000F801E45CFE4FC755DF4FF983E883C95ACE
:10085000D040F801E250FF4FC955DF4FA881B98160
:10086000C75AD0404D915C9190E080E048175907FD
:1008700019F48FEF9FEF22C0C080D180E280F38017
:1008800001963E96C156DF4FA881B981CF59D0401D
:100890008D909C90B12CA12CC814D904EA04FB04BF
:1008A00029F72EE0289FF001299FF00D1124E00F79
:1008B000F11FE250FF4F808191810197092E000CBA
:1008C000AA0BBB0BF101208131818F3FFFEF9F0706
:1008D000AF07BF0751F1A90170E060E084179507E9
:1008E000A607B70714F5C356DF4FA881B981CD59C4
:1008F000D0408D919C918F3F9807B9F00196F101FE
:10090000918380838FEF9FEFC356DF4FA881B9811A
:10091000CD59D0408D939C93C156DF4FE881F9812A
:10092000CF59D0409183808394CF232B09F05CC0B2
:10093000C755DF4FA881B981C95AD0408D919C918C
:10094000892B09F051C0CB55DF4FE880F980C55A9B
:10095000D040712C612C4801B6EC8B1ABEEF9B0A7B
:1009600098E0C92E92E0D92E2EE0A22E22E0B22EDF
:10097000D4018D919C916816790620F082E292E074
:100980000E94F601FF92EF92DF92CF92BF92AF9258
:100990000E94820DB70188E092E00E94400DEEE0D7
:1009A000EE0EF11C0F900F900F900F900F900F9084
:1009B000892B09F049C08EE0869DF001879DF00DDE
:1009C0001124E00FF11FE250FF4F80819181D1018E
:1009D0008D939C9381E090E0C755DF4FE881F981CA
:1009E000C95AD04091838083F10140815181CD5516
:1009F000DF4FA881B981C35AD0408D919C9148178F
:100A0000590790F4CF55DF4FE881F981C15AD040A2
:100A1000808191810097E1F460912004709121041C
:100A200081E392E00E945B0D8BE493E00E94D90188
:100A300000E010E001151105E9F30E94C9008823C8
:100A4000C9F30E940000F6CFFFEF6F1A7F0A90CF24
:100A50002CE0249FB001259F700D1124860F971F55
:100A6000FC01DE01D19601900D922A95E1F7DC019F
:100A70001A96CD90DC901B97ED91FC91EE31F1052B
:100A800008F0F8C5EA5BFA4F0C94260D7B059E082A
:100A90004E09FF093C07F005AA067D06500623060D
:100AA000F605C4056C097D0A99079209D8097B08E7
:100AB000E707550833080D08D7060A07D107A30A28
:100AC000B70AD50A64051E0BC8010E9408027C0102
:100AD000C8010E9408026C01E114F104A1F4DF9244
:100AE0008F938FE492E09F938F930E94820D0F90DB
:100AF0000F900F900F90D1018D919C9111970196BD
:100B00008D939C93A6CEB1E0EB16F104A1F7C8013A
:100B10000E9408028230910518F082E592E030CF01
:100B2000A601485051094630510580F424B1042EE5
:100B300001C0EE0C0A94EAF7E22AE4B825B101C03C
:100B4000880F4A95EAF7822B85B9D5CFA6014E507A
:100B500051094230510540F0E8E0CE16D10408F4C6
:100B60008CC58AE693E00CCF27B1042E01C0EE0CB1
:100B70000A94EAF7E22AE7B828B101C0880F4A953B
:100B8000EAF7822B88B9B7CFD2018D919C91029759
:100B900026E0289FF001299FF00D1124D801AE0F07
:100BA000BF1F14968D919C9115970197029708F09D
:100BB000A2CF3696E00FF11F8481958101970297AD
:100BC00008F099CF4D915D916D917C9180819181DB
:100BD000A281B38184179507A607B7070CF48BCFC2
:100BE0006BA97CA9C8010E946C0133CEF2018081FF
:100BF0009181029726E0289FF001299FF00D112492
:100C0000D801AE0FBF1F14968D919C911597019737
:100C1000029708F070CF3696E00FF11F848195811E
:100C20000197029708F067CF4D915D916D917C918E
:100C300080819181A281B381481759076A077B0798
:100C40000CF059CFCDCFD2018D919C91029726E027
:100C5000289FF001299FF00D1124D801AE0FBF1F6E
:100C600014968D919C9115970197029708F043CFA8
:100C70003696E00FF11F848195810197029708F065
:100C80003ACF4D915D916D917C9180819181A2814E
:100C9000B381481759076A077B070CF42CCFA0CF04
:100CA000F20180819181029726E0289FF001299F1F
:100CB000F00D1124D801AE0FBF1F14968D919C9199
:100CC00015970197029708F016CF3696E00FF11F9F
:100CD000848195810197029708F00DCF4D915D9128
:100CE0006D917C9180819181A281B3818417950758
:100CF000A607B7070CF0FFCE73CFD2018D919C9160
:100D0000029726E0289FF001299FF00D1124D801B9
:100D1000AE0FBF1F14968D919C9115970197029766
:100D200008F0E9CE3696E00FF11F84819581019796
:100D3000029708F0E0CE4D915D916D917C9180819C
:100D40009181A281B381481759076A077B0709F08F
:100D5000D2CE46CFF20180819181029726E0289F72
:100D6000F001299FF00D1124D801AE0FBF1F14967A
:100D70008D919C9115970197029708F0BCCE3696FD
:100D8000E00FF11F848195810197029708F0B3CE9F
:100D90004D915D916D917C9180819181A281B38112
:100DA000481759076A077B0709F4A5CE19CFC80170
:100DB0000E9408020BA802C0880F991F0A94E2F74C
:100DC000092E000CAA0BBB0B282FC956DF4F8883B6
:100DD0009983AA83BB83C759D04082E0682FC55648
:100DE000DF4F8883CB59D040C456DF4F1882CC598F
:100DF000D040C856DF4F3881C859D040C756DF4F62
:100E00004881C959D040C656DF4F5881CA59D04091
:100E100070E0D9C0C8010E9408020BA802C09595D5
:100E200087950A94E2F7092E000CAA0BBB0B282F1A
:100E3000CF56DF4F88839983AA83BB83C159D040A3
:100E400082E0682FCB56DF4F8883C559D040CA5601
:100E5000DF4F1882C659D040CE56DF4F3881C25975
:100E6000D040CD56DF4F4881C359D040CC56DF4FDC
:100E70005881C459D040CCCFC8010E9408027C01DF
:100E8000C8010E940802092E000CAA0BBB0B282FD8
:100E9000C557DF4F88839983AA83BB83CB58D04043
:100EA00082E0D82EC12C6D2DC157DF4FD882CF588C
:100EB000D040C057DF4FC882C059D040C457DF4F21
:100EC0003881CC58D040C357DF4F4881CD58D040EF
:100ED000C257DF4F5881CE58D04070E0C8010E9401
:100EE0002C02C701FF0CAA0BBB0B282FCB57DF4FDF
:100EF00088839983AA83BB83C558D0406D2DC7577B
:100F0000DF4FD882C958D040C657DF4FC882CA5871
:100F1000D040CA57DF4F3881C658D040C957DF4F3D
:100F20004881C758D040C857DF4F5881C858D04073
:100F30006FCFC8010E9408027C01C8010E9408020C
:100F40009C01E29EC001E39E900DF29E900D112443
:100F5000092E000CAA0BBB0B282FC158DF4F88832A
:100F60009983AA83BB83CF57D04082E0682FCD57A7
:100F7000DF4F8883C358D040CC57DF4F1882C45806
:100F8000D040C058DF4F3881C058D040CF57DF4FD6
:100F90004881C158D040CE57DF4F5881C258D04009
:100FA00037CFD2018D919C91019726E0289FF001C7
:100FB000299FF00D1124E00FF11F20813181428122
:100FC000538164817581C8010E942C0294CDC801AF
:100FD0000E9408027C01C8010E9408028E219F2104
:100FE000092E000CAA0BBB0B282FED968CAF9DAFE2
:100FF000AEAFBFAFED9782E0682FEE968FAFEE9762
:10100000EF961FAEEF97EB963FADEB97EC964FAD9B
:10101000EC97ED965FADED97FBCEC8010E940802FC
:101020007C01C8010E9408028E259F25092E000C14
:10103000AA0BBB0B282FE7968CAF9DAFAEAFBFAF0F
:10104000E79782E0682FE8968FAFE897E9961FAEA2
:10105000E997E5963FADE597E6964FADE697E796BB
:101060005FADE797D5CEC8010E94080280959095A4
:10107000092E000CAA0BBB0B282FE1968CAF9DAF5D
:10108000AEAFBFAFE19782E0682FE2968FAFE297F5
:10109000E3961FAEE397AF963FADAF97E0964FADA7
:1010A000E097E1965FADE197B3CEC8010E940802D8
:1010B0007C01C8010E9408028E299F29092E000C7C
:1010C000AA0BBB0B282FAB968CAF9DAFAEAFBFAFBB
:1010D000AB9782E0682FAC968FAFAC97AD961FAE02
:1010E000AD97A9963FADA997AA964FADAA97AB9693
:1010F0005FADAB978DCEC8010E9408029195819596
:101100009109092E000CAA0BBB0B282FA5968CAFBA
:101110009DAFAEAFBFAFA59782E0682FA6968FAF09
:10112000A697A7961FAEA797A3963FADA397A496A1
:101130004FADA497A5965FADA5976ACEFC018681B9
:101140009781049709F0A3C0EBA8FCA866E271E0C0
:10115000C7010E94400D892B09F472C06AE271E058
:10116000C7010E94400D892B09F46DC06EE271E049
:10117000C7010E94400D892B09F468C062E371E049
:10118000C7010E94400D892B09F463C066E371E03A
:10119000C7010E94400D892B09F45EC069E371E02C
:1011A000C7010E94400D892B09F459C06CE371E01E
:1011B000C7010E94400D892B09F454C060E471E01E
:1011C000C7010E94400D892B09F44FC064E471E00F
:1011D000C7010E94400D892B09F44AC068E471E000
:1011E000C7010E94400D892B09F445C06CE471E0F1
:1011F000C7010E94400D892B09F440C060E571E0F1
:10120000C7010E94400D892BE1F164E571E0C7013F
:101210000E94400D892BC1F167E571E0C7010E9472
:10122000400D892BA1F583E890E026E0289FF0018E
:10123000299FF00D1124E00FF11FE45AFF4FBDCE9E
:1012400081E090E0F2CF82E090E0EFCF83E090E0A9
:10125000ECCF84E090E0E9CF85E090E0E6CF86E057
:1012600090E0E3CF87E090E0E0CF88E090E0DDCF52
:1012700089E090E0DACF8AE090E0D7CF8BE090E091
:10128000D4CF8CE090E0D1CF8BEB90E0CECF2BA9E8
:101290003CA94DA95EA96FA978AD95CEC8010E9461
:1012A0000802C114D10409F426CC26E02C9DF001DB
:1012B0002D9DF00D1124E45AFF4FE00FF11F092E70
:1012C000000CAA0BBB0B80839183A283B38382E0C3
:1012D00090E0958384830FCCC8010E9408027C01B2
:1012E000C8010E9408028E0D9F1D092E000CAA0B3A
:1012F000BB0B282F6F968CAF9DAFAEAFBFAF6F9774
:1013000082E0682FA0968FAFA097A1961FAEA197FD
:101310006D963FAD6D976E964FAD6E976F965FADC4
:101320006F9776CDD2018D919C9126E0289FF00198
:10133000299FF00D1124E00FF11F80819181A2817E
:10134000B381892B8A2B8B2B61F4609120047091DF
:10135000210488E692E00E945B0D81E090E00E940B
:101360004110C8010E9408027C01C8010E940802C5
:10137000B7010E94120DCB01770FAA0BBB0B282FD0
:1013800069968CAF9DAFAEAFBFAF699782E0682F13
:101390006A968FAF6A976B961FAE6B9767963FAD55
:1013A000679768964FAD689769965FAD699730CD3E
:1013B000C8010E9408027C01C8010E940802B7010E
:1013C0000E94120D092E000CAA0BBB0B282F63964E
:1013D0008CAF9DAFAEAFBFAF639782E0682F6496CE
:1013E0008FAF649765961FAE659761963FAD619725
:1013F00062964FAD629763965FAD639709CD86E0C5
:10140000FE01F396DE01DD9601900D928A95E1F7DB
:10141000C6010E9486016AE571E00E94400D892B99
:1014200039F460912004709121048FE792E093CF0A
:1014300021966CAC7DAC8EAC9FAC2197C3010E9411
:1014400086016AE571E00E94400D5C01892BE9F597
:10145000EDACFEACFF92EF9287EA92E09F938F9300
:101460000E94820DF70101900020E9F73197AF014A
:101470004E195F090F900F900F900F90D701C70181
:101480008A0D9B1D9D012E193F0924173507A4F0D5
:10149000DC011C92C7010E947A0B26E02C9DF00112
:1014A0002D9DF00D1124E45AFF4FE00FF11F6083D2
:1014B0007183828393830BCF2D91243201F3EFEF5D
:1014C000AE1ABE0AFC012083DACF86E08C9DD001E3
:1014D0008D9DB00D1124A00FB11FA45ABF4F869D42
:1014E000F001879DF00D1124E00FF11FE45AFF4F2A
:1014F00001900D928A95E1F7FECAC8010E94080288
:101500007C01C8010E9408028E199F09092E000C57
:10151000AA0BBB0B282F2D968CAF9DAFAEAFBFAFE4
:101520002D9782E0682F2E968FAF2E972F961FAEA5
:101530002F972B963FAD2B972C964FAD2C972D9632
:101540005FAD2D9765CCF201C080D180F12CE12CEC
:10155000C114D10409F4CFCAEC14FD040CF0CBCAB9
:10156000C8010E940802FFEFEF1AFF0AF5CFD2016F
:101570008D919C91B0E0A0E0282F27968CAF9DAF75
:10158000AEAFBFAF279782E0682F28968FAF28971E
:1015900029961FAE299725963FAD259726964FADE4
:1015A000269727965FAD279733CC87ED92E00E9470
:1015B000980DF201808191816C01F1E0CF1AD10880
:1015C00026E0289F7001299FF00C112426E0E21AE2
:1015D000F108E00EF11ED7FE05C080EF92E00E94F8
:1015E000980D89CAD70114968D919C9115978430D6
:1015F000910559F48D919C910E94980D81E0C81A33
:10160000D10896E0E91AF108E6CF01970297B0F702
:10161000F70183818F9382818F9381818F93808162
:101620008F932BEE32E03F932F930E94820D0F9009
:101630000F900F900F900F900F90E0CF0E591F4F0B
:10164000D80113968C9113978F9312968C911297C1
:101650008F9311968C9111978F938C918F9384E037
:1016600093E09F938F930E94820DF8018081918176
:101670000E9441108CE193E083C92AB10C2C01C077
:10168000EE0C0A94EAF7E22AEAB82BB101C0880FFF
:10169000CA94EAF7822B8BB92ECAEFE7F3E01382E4
:1016A000128288EE93E0A0E0B0E084839583A68365
:1016B000B78388E191E09183808385EC90E0958702
:1016C000848784EC90E09787868780EC90E0918B0C
:1016D000808B81EC90E0938B828B82EC90E0958BF9
:1016E000848B86EC90E0978B868B118E128E138EF6
:1016F000148E08951F93FC0199278827BC01E89454
:1017000011911032E9F3193010F01E30C8F31B327A
:1017100051F01D3249F4689406C00E94A10B610F7C
:10172000711D811D911D119110531A30B0F33EF4BB
:1017300090958095709561957F4F8F4F9F4F1F912A
:101740000895592F482F372F262F660F771F881F90
:10175000991F660F771F881F991F620F731F841FC1
:10176000951F660F771F881F991F08950F931F936A
:10177000CF93DF938230910510F482E090E0E09106
:101780002404F091250430E020E0B0E0A0E03097A0
:1017900099F42115310509F44AC0281B390B24306E
:1017A0003105D8F58A819B816115710589F1FB01AD
:1017B00093838283FE0111C0408151810281138194
:1017C00048175907E0F04817590799F4109761F046
:1017D00012960C93129713961C933296CF01DF91B9
:1017E000CF911F910F910895009324041093250425
:1017F000F4CF2115310551F04217530738F0A901F4
:10180000DB019A01BD01DF01F801C1CFEF01F9CF82
:101810009093250480932404CDCFFE01E20FF31FA3
:10182000819391932250310939832883D7CF209116
:10183000220430912304232B41F4209102013091A2
:10184000030130932304209322042091000130915E
:1018500001012115310541F42DB73EB74091040136
:1018600050910501241B350BE0912204F0912304D3
:10187000E217F307A0F42E1B3F0B2817390778F067
:10188000AC014E5F5F4F2417350748F04E0F5F1FC6
:101890005093230440932204819391939FCFF0E0CF
:1018A000E0E09CCFCF93DF930097E9F0FC01329703
:1018B00013821282A0912404B0912504ED0130E03E
:1018C00020E01097A1F420813181820F931F209195
:1018D0002204309123042817390709F061C0F093DE
:1018E0002304E0932204DF91CF910895EA01CE17FB
:1018F000DF07E8F54A815B819E0141155105B1F78B
:10190000E901FB83EA8349915991C40FD51FEC1774
:10191000FD0761F4808191810296840F951FE90192
:1019200099838883828193819B838A83F0E0E0E0BE
:1019300012968D919C9113970097B9F52D913C913A
:101940001197CD010296820F931F209122043091AE
:1019500023042817390739F6309751F510922504DA
:1019600010922404B0932304A0932204BCCFD38309
:10197000C28340815181840F951FC817D90761F434
:101980004E5F5F4F88819981480F591F5183408373
:101990008A819B81938382832115310509F0B0CF21
:1019A000F0932504E09324049ECFFD01DC01C0CF19
:1019B00013821282D7CF2F923F924F925F926F92F3
:1019C0007F928F929F92AF92BF92CF92DF92EF92CF
:1019D000FF920F931F93CF93DF93CDB7DEB7CA1B50
:1019E000DB0B0FB6F894DEBF0FBECDBF09942A887B
:1019F000398848885F846E847D848C849B84AA8423
:101A0000B984C884DF80EE80FD800C811B81AA81AF
:101A1000B981CE0FD11D0FB6F894DEBF0FBECDBF7A
:101A2000ED01089597FB072E16F4009407D077FD7B
:101A300009D00E942C0D07FC05D03EF490958195AD
:101A40009F4F0895709561957F4F0895EE0FFF1F8A
:101A50000590F491E02D0994AA1BBB1B51E107C02E
:101A6000AA1FBB1FA617B70710F0A61BB70B881F2E
:101A7000991F5A95A9F780959095BC01CD010895BD
:101A8000FB01DC018D91019080190110D9F3990BB4
:101A90000895B0E0A0E0EFE4FDE00C94EB0CAE01A3
:101AA000475F5F4F6F8178858D819E810E94C30D56
:101AB000E2E00C94070DEF92FF920F931F93CF93E8
:101AC000DF93FB01238121FF19C0EB018C01F12C75
:101AD000E12CF80181918F01811106C0C701CDB7BA
:101AE000DEB7E6E00C94030DE885F985BE010995A3
:101AF000892B79F3EE24EA94FE2CEBCFEE24EA94C2
:101B0000FE2CECCFB0E0A0E0E8E8FDE00C94EB0C9C
:101B1000AE014B5F5F4FFA0161917191AF0180910E
:101B20001E0490911F040E94C30DE2E00C94070D67
:101B30000F931F93CF93DF93E0911E04F0911F0446
:101B40002381EC0110E000E021FD08C00FEF1FEF42
:101B500014C00995892B11F00FEF1FEF8991609147
:101B60001E0470911F04DB011896ED91FC91811108
:101B7000F0CF8AE00995892B49F7C801DF91CF9111
:101B80001F910F910895ABE0B0E0E9ECFDE00C94FB
:101B9000DB0C7C013B018A01FC01178216828381E8
:101BA00081FFC8C1CE0101965C01F7019381F30169
:101BB00093FD859193FF81913F01882309F453C1DF
:101BC000853239F493FD859193FF81913F018532F0
:101BD00029F4B70190E00E94B30FE7CF912C212C9C
:101BE000312CFFE1F31538F08B3211F190F4803293
:101BF00009F1833229F137FC3CC020ED280F2A304F
:101C000050F536FE20C08AE0989E200D1124922EB9
:101C100006C08D3291F0803371F7689430F8F3018B
:101C200093FD859193FF81913F018111DACF21C00E
:101C3000689431F8689432F8F2CF689433F8EFCFB3
:101C4000689434F8ECCFEAE02E9E200D1124222E69
:101C5000689435F8E4CF8E3229F436FC04C16894D8
:101C600036F8DDCF8C3619F4689437F8D8CF88363B
:101C7000B1F2982F9F7D95549330E0F08336A1F117
:101C80008337C1F1833509F063C02801F2E04F0EBC
:101C9000511CF801C080D180692D70E036FC02C073
:101CA0006FEF7FEFC6010E949D0F4C01689437F8DB
:101CB00082010AC00C5F1F4FFFE3F98388248394DD
:101CC000912C6501E89437F833FE2DC0522C811415
:101CD000910471F5552009F468CFB70180E290E0D6
:101CE0000E94B30F5A94F6CFF801808189830E5F6A
:101CF0001F4FE4CF2801F2E04F0E511CF801C080C5
:101D0000D180692D70E036FC02C06FEF7FEFC60115
:101D10000E94A80F4C018201D5CFB70180E290E06C
:101D20000E94B30F2A942814190409F0B0F7CECFFB
:101D3000F60137FC859137FE81916F01B70190E084
:101D40000E94B30F51105A94F1E08F1A9108BFCF3F
:101D5000843619F0893609F077C0F80137FE6BC078
:101D600060817181828193810C5F1F4FF32DFF761B
:101D70003F2E97FF09C090958095709561957F4F94
:101D80008F4F9F4F689437F82AE030E0A5010E94FA
:101D9000E30FC82ECA188C2C432C36FE0CC0E894D6
:101DA00040F8C91440F434FE05C032FC03C0F32DE2
:101DB000FE7E4F2E892C44FE95C0FE01EC0DF11DD8
:101DC0008081803309F087C0242D297E422E842D06
:101DD0008870582E43FC95C040FE8FC09C2C821406
:101DE00018F42C0C922C981844FE91C0B70180E393
:101DF00090E00E94B30F42FE09C088E790E041FEE8
:101E000002C088E590E0B7010E94B30FC91408F43E
:101E10008AC0CA94D12C9FEFC91AD90ACA0CDB1CFC
:101E2000F60182916F01B70190E00E94B30FAC14EC
:101E3000BD04B1F74FCF60817181072E000C880B74
:101E4000990B0E5F1F4F92CFD32CE894D4F82AE061
:101E500030E0853739F1232D297FD22E8F3601F1DD
:101E600048F48835A9F0F701868197812B96E2E145
:101E70000C94F70C803749F08837A9F7D4FE02C0DC
:101E80006894D2F820E130E00DC06894D4F8F6CF21
:101E900034FE03C0822F8660D82E20E132E002C0DB
:101EA00028E030E0F801D7FE0FC0608171818281A7
:101EB00093810C5F1F4FA5010E94E30FC82ECA1823
:101EC0003D2CE89437F867CF6081718190E080E025
:101ED0000E5F1F4FF0CF42FC02C0839478CF8394F3
:101EE000839475CF842D867809F471CFF6CFB7012E
:101EF00080E290E00E94B30F83948214C0F3512CCF
:101F000073CF522C5818821408F46ECFF8CF842D5A
:101F1000867809F47BCF8BE241FE80E247FC8DE2BC
:101F2000B70190E071CFB70180E390E00E94B30F5A
:101F30009A946CCF8FEF9FEF99CFFC010590615081
:101F400070400110D8F7809590958E0F9F1F0895CF
:101F5000FC016150704001900110D8F78095909578
:101F60008E0F9F1F08950F931F93CF93DF93182F0A
:101F7000092FEB018B8181FD09C01FEF0FEF812F2E
:101F8000902FDF91CF911F910F91089582FF14C080
:101F90002E813F818C819D81281739073CF4E8818F
:101FA000F981CF0101969983888310838E819F8167
:101FB00001969F838E83E3CFE885F985812F09956C
:101FC000892BA1F3DACFFA01AA27283051F1203169
:101FD00081F1E8946F936E7F6E5F7F4F8F4F9F4FBD
:101FE000AF4FB1E03ED0B4E03CD0670F781F891FFF
:101FF0009A1FA11D680F791F8A1F911DA11D6A0FCD
:10200000711D811D911DA11D20D009F468943F917F
:102010002AE0269F11243019305D3193DEF6CF017E
:102020000895462F4770405D4193B3E00FD0C9F744
:10203000F6CF462F4F70405D4A3318F0495D31FDB1
:102040004052419302D0A9F7EACFB4E0A695979504
:10205000879577956795BA95C9F7009761057105DA
:1020600008959B01AC010A2E069457954795379524
:102070002795BA95C9F7620F731F841F951FA01D7E
:062080000895F894FFCF63
:10208600000026048000737461727400000005006D
:102096000000000000000000FF005F008C004C0103
:1020A600BD009B00AF0072617800726278007263B7
:1020B600780072647800723800723900723130002C
:1020C60072313100723132007231330072313400B4
:1020D60072313500657000637000756E6B6E6F77D8
:1020E6006E006E6F6E65000D0A0072756E74696D16
:1020F60065206572726F722E2025730A0053746113
:10210600636B20756E646572666C6F7720776865A1
:102116006E20747279696E6720746F20706F7020FC
:1021260066726F6D20737461636B2E2041626F72ED
:102136007465642E0A00537461636B206F76657252
:10214600666C6F77207768656E20747279696E6742
:1021560020746F20707573682076616C75652074C5
:102166006F20737461636B2E2041626F72746564B5
:102176002E0A004C69766500496E74657270726548
:1021860074696E672E2E2E00737461727400636F0D
:102196006D706172696E6720257320746F202573D8
:1021A6000A006E6F20656E74727920706F696E74A6
:1021B6000050616E69633A20496E73747275637478
:1021C600696F6E7320696E76616C6964210A0025F9
:1021D6007300696E76616C6964207374617465203E
:1021E600666F722070696E00446976696465206264
:1021F60079207A65726F206572726F722E0A0049B5
:102206006E76616C69642064657374696E61746965
:102216006F6E2072656769737465722E2041626FF6
:10222600727465642E0A004E6F74206120736F7598
:102236007263652072656769737465722E205461D6
:102246006B696E67206173206120636F6E737461C2
:102256006E742025730A002D2D2D20537461636B37
:10226600205374617274202D2D2D00256C640A0094
:102276002D2D2D20537461636B20456E6420202024
:102286002D2D2D0065786974696E672077697468ED
:1022960020636F646520256C642E0A000A09496E66
:1022A600202752756E496E737472756374696F6E0A
:1022B60073282927203A20756E6B6E6F776E20691A
:1022C6006E737472756374696F6E005375636365BC
:1022D600737366756C6C792072616E20696E7374A7
:1022E60072756374696F6E732E00696E76616C69C0
:0622F600642070696E0017
:00000001FF
