:100000000C9436000C945E000C945E000C945E0020
:100010000C945E000C945E000C945E000C945E00E8
:100020000C945E000C945E000C945E000C945E00D8
:100030000C945E000C945E000C945E000C945E00C8
:100040000C94F4010C945E000C9464020C943E0237
:100050000C945E000C945E000C945E000C945E00A8
:100060000C945E000C945E009602410411241FBEA5
:10007000CFEFD8E0DEBFCDBF11E0A0E0B1E0ECE013
:10008000FDE002C005900D92A233B107D9F721E03F
:10009000A2E3B1E001C01D92A23EB207E1F710E079
:1000A000C5E3D0E004C02197FE010E94A605C43339
:1000B000D107C9F70E940C030C9479060C94000038
:1000C000AF92BF92CF92DF92EF92FF920F931F9366
:1000D000CF93DF936C017B018B01040F151FEB01A4
:1000E0005E01AE18BF08C017D10759F06991D6015B
:1000F000ED91FC910190F081E02DC6010995892BCD
:1001000079F7C501DF91CF911F910F91FF90EF908B
:10011000DF90CF90BF90AF900895FC01538D448D38
:10012000252F30E0842F90E0821B930B541710F0A2
:10013000CF96089501970895FC01918D828D9817AF
:1001400061F0A28DAE0FBF2FB11D5D968C91928D87
:100150009F5F9F73928F90E008958FEF9FEF0895B8
:100160002FB7F8948091370190913801A09139010F
:10017000B0913A012FBF8093430190934401A09323
:100180004501B09346018BE391E00E949C0097FFEC
:1001900026C02FB7F8948091370190913801A09133
:1001A0003901B0913A012FBF409143015091440170
:1001B0006091450170914601841B950BA60BB70B0E
:1001C00040913F0150914001609141017091420185
:1001D00084179507A607B707B0F28FEF9FEF089532
:1001E000FC01918D828D981731F0828DE80FF11D01
:1001F000858D90E008958FEF9FEF0895FC01918D1C
:10020000228D892F90E0805C9F4F821B91098F7314
:10021000992708958BE391E00E94FE0021E0892B4D
:1002200009F420E0822F089580E090E0892B29F0E6
:100230000E940A0181110C9400000895FC01A48D14
:10024000A80FB92FB11DA35ABF4F2C91848D90E0F8
:1002500001968F739927848FA689B7892C93A089DB
:10026000B1898C91837080648C93938D848D981365
:1002700006C00288F389E02D80818F7D80830895F8
:10028000EF92FF920F931F93CF93DF93EC0181E0E6
:10029000888F9B8D8C8D98131AC0E889F98980818D
:1002A00085FF15C09FB7F894EE89FF896083E889C0
:1002B000F98980818370806480839FBF81E090E0B2
:1002C000DF91CF911F910F91FF90EF900895F62E3F
:1002D0000B8D10E00F5F1F4F0F731127E02E8C8DD9
:1002E0008E110CC00FB607FCFACFE889F98980811E
:1002F00085FFF5CFCE010E941E01F1CFEB8DEC0FF3
:10030000FD2FF11DE35AFF4FF0829FB7F8940B8F3A
:10031000EA89FB8980818062CFCFCF93DF93EC01A4
:10032000888D8823B9F0AA89BB89E889F9898C91DD
:1003300085FD03C0808186FD0DC00FB607FCF7CF99
:100340008C9185FFF2CF808185FFEDCFCE010E9499
:100350001E01E9CFDF91CF91089542E050E068E1BE
:1003600071E08BE391E00C946000CF93DF93FC018C
:1003700001900020E9F73197AF01481B590BBC01F0
:100380008BE391E00E946000EC010E94AD018C0FB4
:100390009D1FDF91CF9108950F931F93CF93DF930C
:1003A000EC0188819981009759F02A813B812617B9
:1003B000370730F081E0DF91CF911F910F910895C1
:1003C0008B016F5F7F4F0E94AC05009759F09983B6
:1003D00088831B830A832C813D81232B59F7FC01E1
:1003E0001082E8CF80E0E7CF1F920F920FB60F92F6
:1003F00011242F933F938F939F93AF93BF9380913B
:10040000370190913801A0913901B0913A013091B2
:10041000360123E0230F2D3758F50196A11DB11D9C
:10042000209336018093370190933801A0933901CE
:10043000B0933A018091320190913301A09134013F
:10044000B09135010196A11DB11D809332019093A9
:100450003301A0933401B0933501BF91AF919F91C7
:100460008F913F912F910F900FBE0F901F90189575
:1004700026E8230F0296A11DB11DD2CF1F920F9225
:100480000FB60F9211242F933F934F935F936F9367
:100490007F938F939F93AF93BF93EF93FF938BE3E0
:1004A00091E00E941E01FF91EF91BF91AF919F914A
:1004B0008F917F916F915F914F913F912F910F900D
:1004C0000FBE0F901F9018951F920F920FB60F92AC
:1004D00011242F938F939F93EF93FF93E0914B0100
:1004E000F0914C018081E0915101F091520182FD27
:1004F0001BC09081809154018F5F8F7320915501B3
:10050000821741F0E0915401F0E0E55CFE4F958FD9
:1005100080935401FF91EF919F918F912F910F90B4
:100520000FBE0F901F9018958081F4CF10923E015E
:1005300010923D0188EE93E0A0E0B0E080933F018F
:1005400090934001A0934101B09342018AE091E071
:1005500090933C0180933B0185EC90E0909348019F
:100560008093470184EC90E090934A018093490185
:1005700080EC90E090934C0180934B0181EC90E0F3
:1005800090934E0180934D0182EC90E09093500146
:1005900080934F0186EC90E090935201809351013B
:1005A0001092540110925501109256011092570169
:1005B0001092D9011092D8011092DB011092DA0149
:1005C0001092DD011092DC0170E060E088ED91E0B6
:1005D0000E94CC012091D8013091D901811113C022
:1005E0002115310519F0C9010E94E6041092D901C4
:1005F0001092D8011092DD011092DC011092DB0103
:100600001092DA0108951092DD011092DC016AE186
:1006100071E0C9010C947206CF93DF93CDB7DEB7BA
:1006200028970FB6F894DEBF0FBECDBF789484B57F
:10063000826084BD84B5816084BD85B5826085BDDE
:1006400085B5816085BD80916E00816080936E006C
:10065000109281008091810082608093810080915E
:10066000810081608093810080918000816080930F
:1006700080008091B10084608093B1008091B000CF
:1006800081608093B00080917A00846080937A00CA
:1006900080917A00826080937A0080917A008160F4
:1006A00080937A0080917A00806880937A0010921B
:1006B000C100E0914B01F0914C0182E08083E09118
:1006C0004701F09148011082E0914901F0914A01FF
:1006D0008FEC808310925301E0914F01F091500113
:1006E00086E08083E0914D01F0914E018081806130
:1006F0008083E0914D01F0914E018081886080837C
:10070000E0914D01F0914E01808180688083E091FD
:100710004D01F0914E0180818F7D80838BE191E0CE
:100720000E94B50180E0E82E80E0F82E8BE391E096
:100730000E94FE00181619060CF097C01A82198242
:100740001C821B821E821D8270E060E0CE01019639
:100750000E94CC0129813A8181112EC021153105D9
:1007600019F0C9010E94E6041A8219821E821D82B4
:100770001C821B820E94B0000D811E8197FD24C047
:100780008A30910509F18F8318860F5F1F4FB801DA
:10079000CE0101960E94CC01882361F329813A8120
:1007A0008D819E81BE01695F7F4F820F931F0E94E2
:1007B00072061E830D83DECF1E821D826AE171E008
:1007C000C9010E947206D6CF012B09F448C080E20D
:1007D00091E00E94B5014D815E8169817A818BE350
:1007E00091E00E9460000E94AD01C980DA80C114CE
:1007F000D10419F10D811E8101151105F1F08091CF
:10080000DC019091DD01080F191FB80188ED91E01E
:100810000E94CC01882389F02091D8013091D90120
:100820008091DC019091DD01B601820F931F0E943F
:1008300072061093DD010093DC018AE291E00E94D0
:10084000B5014091DC015091DD016091D8017091BA
:10085000D9018BE391E00E9460000E94AD01898183
:100860009A81009711F00E94E604E114F10409F462
:100870005DCF0E940A01882309F458CF0E9400002E
:1008800055CF8091D8019091D901009711F00C9427
:10089000E60408950F931F93CF93DF938230910561
:1008A00010F482E090E0E091E001F091E10130E0AD
:1008B00020E0B0E0A0E0309799F42115310509F46B
:1008C0004AC0281B390B24303105D8F58A819B8119
:1008D0006115710589F1FB0193838283FE0111C0CB
:1008E000408151810281138148175907E0F0481770
:1008F000590799F4109761F012960C93129713967A
:100900001C933296CF01DF91CF911F910F910895E3
:100910000093E0011093E101F4CF2115310551F06E
:100920004217530738F0A901DB019A01BD01DF012D
:10093000F801C1CFEF01F9CF9093E1018093E0017D
:10094000CDCFFE01E20FF31F819391932250310925
:1009500039832883D7CF2091DE013091DF01232B0B
:1009600041F420910201309103013093DF01209383
:10097000DE0120910001309101012115310541F482
:100980002DB73EB74091040150910501241B350B52
:10099000E091DE01F091DF01E217F307A0F42E1BD6
:1009A0003F0B2817390778F0AC014E5F5F4F2417D3
:1009B000350748F04E0F5F1F5093DF014093DE0173
:1009C000819391939FCFF0E0E0E09CCFCF93DF93B2
:1009D0000097E9F0FC01329713821282A091E001A6
:1009E000B091E101ED0130E020E01097A1F4208109
:1009F0003181820F931F2091DE013091DF01281792
:100A0000390709F061C0F093DF01E093DE01DF9167
:100A1000CF910895EA01CE17DF07E8F54A815B819F
:100A20009E0141155105B1F7E901FB83EA83499124
:100A30005991C40FD51FEC17FD0761F48081918196
:100A40000296840F951FE90199838883828193819F
:100A50009B838A83F0E0E0E012968D919C9113973E
:100A60000097B9F52D913C911197CD010296820F17
:100A7000931F2091DE013091DF012817390739F6E5
:100A8000309751F51092E1011092E001B093DF012F
:100A9000A093DE01BCCFD383C28340815181840FF8
:100AA000951FC817D90761F44E5F5F4F8881998100
:100AB000480F591F518340838A819B81938382838E
:100AC0002115310509F0B0CFF093E101E093E00189
:100AD0009ECFFD01DC01C0CF13821282D7CF2F92AF
:100AE0003F924F925F926F927F928F929F92AF92BE
:100AF000BF92CF92DF92EF92FF920F931F93CF930B
:100B0000DF93CDB7DEB7CA1BDB0B0FB6F894DEBFA1
:100B10000FBECDBF09942A88398848885F846E84C7
:100B20007D848C849B84AA84B984C884DF80EE8011
:100B3000FD800C811B81AA81B981CE0FD11D0FB61A
:100B4000F894DEBF0FBECDBFED010895EE0FFF1F7D
:100B50000590F491E02D0994B0E0A0E0E2EBF5E01F
:100B60000C9471058C01009751F4CB010E944A044A
:100B70008C01C801CDB7DEB7E0E10C948D05FC0116
:100B8000E60FF71F9C0122503109E217F30708F422
:100B90009DC0D901CD91DC911197C617D70798F068
:100BA000C530D10530F3CE0104978617970708F3B7
:100BB000C61BD70B2297C193D1936D937C93CF0122
:100BC0000E94E604D6CF5B01AC1ABD0A4C018C0E24
:100BD0009D1EA091E001B091E101512C412CF12C1E
:100BE000E12C109731F58091DE019091DF0188159D
:100BF000990509F05CC04616570608F058C0809168
:100C0000000190910101009741F48DB79EB740918A
:100C1000040150910501841B950BE817F90708F0B2
:100C200055C0F093DF01E093DE01F9017183608329
:100C3000A0CF8D919C91119712966C90129713965C
:100C40007C901397A815B90559F56C0142E0C40EC4
:100C5000D11CCA14DB0420F1AC014A195B09DA018A
:100C60001296159780F06282738251834083D90176
:100C70006D937C93E114F10471F0D7011396FC930A
:100C8000EE93129776CF22968C0F9D1FF9019183D8
:100C90008083F301EFCFF093E101E093E00169CFAE
:100CA0004816590608F42C017D01D3019ACFCB01D7
:100CB0000E944A047C01009749F0AE01B8010E94ED
:100CC0006906C8010E94E604870153CF10E000E0E6
:100CD00050CFFB01DC0102C001900D924150504009
:100CE000D8F70895FB01DC0101900D920020E1F797
:100CF000089510E0C5E3D0E004C0FE010E94A605FF
:0C0D00002196C633D107C9F7F894FFCF45
:100D0C000000E201800000000000400160008D0046
:100D1C008D01FE009C00F0000D0A004C6976650008
:100D2C0052656365697665643A00546F74616C3A18
:020D3C000000B5
:00000001FF
