:020000040000FA
:100000000C9435000C945D000C945D000C945D0024
:100010000C945D000C945D000C945D000C945D00EC
:100020000C945D000C945D000C945D000C945D00DC
:100030000C945D000C945D000C945D000C945D00CC
:100040000C9406060C945D000C9476060C945006F5
:100050000C945D000C945D000C945D000C945D00AC
:100060000C945D000C945D00D70711241FBECFEFE8
:10007000D8E0DEBFCDBF12E0A0E0B1E0EAE3FBE1F3
:1000800002C005900D92A036B107D9F724E0A0E692
:10009000B2E001C01D92A835B207E1F710E0C5E358
:1000A000D0E004C02197FE010E94080AC433D107A2
:1000B000C9F70E94A8060C949B0D0C940000AF9207
:1000C000BF92CF92DF92EF92FF920F931F93CF9345
:1000D000DF936C017B018B01040F151FEB015E01A7
:1000E000AE18BF08C017D10759F06991D601ED913C
:1000F000FC910190F081E02DC6010995892B79F7DB
:10010000C501DF91CF911F910F91FF90EF90DF908C
:10011000CF90BF90AF900895FC01538D448D252F53
:1001200030E0842F90E0821B930B541710F0CF9691
:10013000089501970895FC01918D828D981761F0C3
:10014000A28DAE0FBF2FB11D5D968C91928D9F5FDA
:100150009F73928F90E008958FEF9FEF0895FC01B9
:10016000918D828D981731F0828DE80FF11D858D6C
:1001700090E008958FEF9FEF0895FC01918D228DFF
:10018000892F90E0805C9F4F821B91098F73992784
:10019000089580E692E00E94BD0021E0892B09F4D9
:1001A00020E0822F089580E090E0892B29F00E94C2
:1001B000C90081110C9400000895FC01A48DA80FC2
:1001C000B92FB11DA35ABF4F2C91848D90E0019699
:1001D0008F739927848FA689B7892C93A089B189B9
:1001E0008C91837080648C93938D848D981306C05A
:1001F0000288F389E02D80818F7D80830895EF92BE
:10020000FF920F931F93CF93DF93EC0181E0888FD0
:100210009B8D8C8D98131AC0E889F989808185FFA0
:1002200015C09FB7F894EE89FF896083E889F98942
:1002300080818370806480839FBF81E090E0DF9144
:10024000CF911F910F91FF90EF900895F62E0B8D97
:1002500010E00F5F1F4F0F731127E02E8C8D8E1152
:100260000CC00FB607FCFACFE889F989808185FFB9
:10027000F5CFCE010E94DD00F1CFEB8DEC0FFD2F0D
:10028000F11DE35AFF4FF0829FB7F8940B8FEA8974
:10029000FB8980818062CFCFCF93DF93EC01888D83
:1002A0008823B9F0AA89BB89E889F9898C9185FDF1
:1002B00003C0808186FD0DC00FB607FCF7CF8C917F
:1002C00085FFF2CF808185FFEDCFCE010E94DD005A
:1002D000E9CFDF91CF9108958830910560F09C01BE
:1002E000285031092630310548F00E97069748F01E
:1002F0008FEF9FEF089582E090E0089590E080E016
:10030000089581E090E00895CF93DF93EC010E947F
:100310006C018130910559F040F0029711F0CFEF58
:10032000DFEFCE01DF91CF9108952897FACF2E9776
:10033000F8CFCF93DF9300D000D000D0CDB7DEB799
:1003400049835A836B837C838D839E8320916003D2
:10035000309161032F30310560F06091520470914B
:10036000530486E291E00E94260B81E090E00E9417
:100370009B0DC9010196909361038093600386E011
:10038000829FD001839FB00D1124AA5FBC4FFE0154
:10039000319601900D928A95E1F726960FB6F89462
:1003A000DEBF0FBECDBFDF91CF9108958091600376
:1003B00090916103009761F460915204709153042D
:1003C00083E691E00E94260B81E090E00E949B0D65
:1003D0000197909361038093600326E0289FF001CA
:1003E000299FF00D1124EA5FFC4F808191810895CF
:1003F0009F938F938CE991E09F938F93EEE4F4E0C9
:1004000085818F9384818F930E94E40A81E090E03C
:100410000E949B0D8F929F92AF92BF92CF92DF92DC
:10042000EF92FF920F931F93CF93DF93CDB7DEB779
:10043000E8970FB6F894DEBF0FBECDBF40914A04D7
:1004400050914B0470E060E0E4E0F4E0009140047F
:100450001091410490E080E08017910719F48FEF2C
:100460009FEF16C0C080D180E280F38001963E9657
:10047000C416D506E606F70679F72EE0289FF001A8
:10048000299FF00D1124EC5FFB4F80819181019732
:10049000092E000CAA0BBB0B209148043091490493
:1004A0008F3F4FEF9407A407B40799F1A90170E0BB
:1004B00060E084179507A607B7075CF580914C04A8
:1004C00090914D048F3F980721F101969093490434
:1004D000809348048FEF9FEF90934D0480934C04DA
:1004E00090934B0480934A040E940A02E8960FB648
:1004F000F894DEBF0FBECDBFDF91CF911F910F915A
:10050000FF90EF90DF90CF90BF90AF909F908F9033
:100510000895232B69F4809142049091430426E0CE
:10052000C22E23E0D22EF12CE12C892B09F457C0E6
:1005300020914804309149048091460490914704E9
:100540002817390798F69AE0F92EF29EA001F39E3B
:10055000500D11248091440490914504840F951FFF
:10056000FC01DE011B962F2D01900D922A95E1F7DB
:10057000FC01008111810331110509F430C3B4F588
:100580000130110509F45CC20230110509F40CC3F5
:100590008DE292E029C0B6016C507F4F8FEA91E066
:1005A0000E94D40AFEE0CF0ED11C892BA9F48EE064
:1005B0008E9DF0018F9DF00D1124EC5FFB4F80812B
:1005C0009181909349048093480481E090E0909356
:1005D000430480934204ACCF2FEFE21AF20AE016F4
:1005E000F106C9F685EB91E00E94F8010D31110585
:1005F00009F40AC10E311105D9F00731110541F690
:100600000E94D6010D8402C0880F991F0A94E2F758
:10061000092E000CAA0BBB0B482F8DA79EA7AFA7D6
:10062000B8AB82E089AB1AAA5EA56FA578A937C0DE
:100630000E94D6018430910509F088C00E94D6013D
:100640008C010E948401F82EC8010E946C01009761
:1006500099F544B121E030E00F2C02C0220F331F86
:100660000A94E2F7822F8095842384B993B1892F6D
:1006700090E08223932302C095958795FA94E2F740
:10068000092E000CAA0BBB0B482F89839A83AB83DE
:10069000BC8382E08D831E825A816B817C8190E0D5
:1006A0000E94990180914804909149040196909389
:1006B00049048093480418CF8130910501F547B172
:1006C0009C0102C0220F331FFA94E2F7922F9095FB
:1006D000942397B996B1892F90E082239323092E12
:1006E000000CAA0BBB0B482F8B8F9C8FAD8FBE8F3E
:1006F00082E08F8F18A25C8D6D8D7E8DD0CF823081
:10070000910509F53AB141E050E002C0440F551F90
:10071000FA94E2F7242F209523232AB929B1022F36
:1007200010E004231523012E000C220B330B402F65
:1007300009A31AA32BA33CA39EA38DA35AA16BA12B
:100740007CA19EA1ADCF84EC91E04ECF019709F042
:10075000A9CF8E010F5F1F4FF8011192FA94E9F7AC
:1007600082E2898340914E0450914F046AE070E028
:10077000CE0102960E943508892B09F493CFF80127
:1007800001900020E9F73197BF01601B710BD80180
:1007900090E080E09801280F391FAD01401B510BFC
:1007A0004617570754F1F9011082F8010190002013
:1007B000E9F7319782E280831E8E1D8E1C8F0B8F8E
:1007C00084E090E098A38F8F86E0FE017B96DE01A7
:1007D000559601900D928A95E1F786E0FE01759697
:1007E000DE01979601900D928A95E1F74FA158A5E9
:1007F00069A57AA58BA59CA553CF4D914A3051F29E
:100800000196F9014083C6CF0E94D6017C010E9467
:10081000D6018C01C7010297029708F0C8C0F80101
:100820008081823241F401900020E9F73297808183
:10083000D801823241F080ED91E0D6CE11968C91B4
:1008400011978C93D901F80101900020E9F73197B5
:10085000E01BF10B9D012F5F3F4FCD01801B910BE2
:100860008E179F0758F323E0E216F10409F04AC0FF
:10087000F0905004E0905104E00FF11F3197108286
:10088000912C812C8FEDA82E81E0B82EF8010190DB
:100890000020E9F73197E01BF10B8E169F0608F058
:1008A00001CFD801A80DB91D8C918C3509F076C007
:1008B00064014FEFC41AD40ACE16DF0608F06EC0EA
:1008C000F801EC0DFD1D8081823609F45DC044F510
:1008D000873209F445C0DCF4823209F446C0282F7F
:1008E000082E000C330B3F938F93BF92AF92EF9281
:1008F000FF920E94E40A0F900F900F900F900F90BC
:100900000F901BC0F0905204E0905304B5CF8C358B
:1009100011F1813621F76F2D7E2D87E090E00BC01D
:10092000823769F17CF48636A1F18E36C1F66F2DDF
:100930007E2D8AE090E00E94F60A46018FEF881A29
:10094000980AA4CF8437B1F0863749F66F2D7E2DF3
:100950008BE090E0F0CF6F2D7E2D8CE590E0EBCF1B
:100960006F2D7E2D87E290E0E6CF6F2D7E2D82E207
:1009700090E0E1CF6F2D7E2D89E090E0DCCF6F2DF0
:100980007E2D8DE090E0D7CF6F2D7E2D88E090E01A
:10099000D2CF6F2D7E2D8CE090E0CDCF6F2D7E2DB0
:1009A000082E000C990B0E94F60A6401C6CF94E051
:1009B000E916F10409F076CE0E94D6017C0183EE9F
:1009C00091E0E2E0EE16F10408F00ECEC8010E94BC
:1009D0008401D82EC8010E946C0197010D2C01C022
:1009E000220F0A94EAF7009769F484B141E050E0DD
:1009F00001C0440FDA94EAF7842B84B985B1282B1F
:100A000025B950CE8130910559F437B101C0880F16
:100A1000DA94EAF7832B87B988B1282B28B942CE1C
:100A2000029709F090CE8AB141E050E001C0440F36
:100A3000DA94EAF7842B8AB98BB1282B2BB932CE02
:100A400086819781049709F0A8C00D851E8569EFFE
:100A500071E0C8010E94D40A892B09F477C06DEFB8
:100A600071E0C8010E94D40A892B09F472C061E0C8
:100A700072E0C8010E94D40A892B09F46DC065E0B8
:100A800072E0C8010E94D40A892B09F468C069E0A9
:100A900072E0C8010E94D40A892B09F463C06CE09B
:100AA00072E0C8010E94D40A892B09F45EC06FE08D
:100AB00072E0C8010E94D40A892B09F459C063E18D
:100AC00072E0C8010E94D40A892B09F454C067E17E
:100AD00072E0C8010E94D40A892B09F44FC06BE16F
:100AE00072E0C8010E94D40A892B09F44AC06FE160
:100AF00072E0C8010E94D40A892B09F445C063E260
:100B000072E0C8010E94D40A892B09F440C067E250
:100B100072E0C8010E94D40A892BE1F16AE272E016
:100B2000C8010E94D40A892BC1F583E890E026E031
:100B3000289FF001299FF00D1124EE59FC4F4081B0
:100B400051816281738184819581AACD81E090E099
:100B5000EECF82E090E0EBCF83E090E0E8CF84E05E
:100B600090E0E5CF85E090E0E2CF86E090E0DFCF57
:100B700087E090E0DCCF88E090E0D9CF89E090E09A
:100B8000D6CF8AE090E0D3CF8BE090E0D0CF8CE05E
:100B900090E0CDCF8BEB90E0CACF4D855E856F8521
:100BA000788989899A897CCDE084F1840E94D60174
:100BB000E114F10409F476CD26E02E9DF0012F9D7D
:100BC000F00D1124EE59FC4F092E000CAA0BBB0BA3
:100BD00080839183A283B3831583048363CD0E94B2
:100BE000D6018C010E94D601802B912B092E000C7E
:100BF000AA0BBB0B482F8BAB9CABADABBEAB82E063
:100C00008FAB18AE5CA96DA97EA949CD1F920F923A
:100C10000FB60F9211242F933F938F939F93AF930F
:100C2000BF938091020390910303A0910403B091BC
:100C300005033091010323E0230F2D3758F501966A
:100C4000A11DB11D20930103809302039093030320
:100C5000A0930403B09305038091FD029091FE02DE
:100C6000A091FF02B09100030196A11DB11D8093D8
:100C7000FD029093FE02A093FF02B0930003BF9188
:100C8000AF919F918F913F912F910F900FBE0F9039
:100C90001F90189526E8230F0296A11DB11DD2CFF3
:100CA0001F920F920FB60F9211242F933F934F93E1
:100CB0005F936F937F938F939F93AF93BF93EF93C4
:100CC000FF9380E692E00E94DD00FF91EF91BF91DB
:100CD000AF919F918F917F916F915F914F913F91D4
:100CE0002F910F900FBE0F901F9018951F920F928B
:100CF0000FB60F9211242F938F939F93EF93FF932F
:100D0000E0917002F09171028081E0917602F091A1
:100D1000770282FD1BC09081809179028F5F8F7373
:100D200020917A02821741F0E0917902F0E0E05AD6
:100D3000FD4F958F80937902FF91EF919F918F9155
:100D40002F910F900FBE0F901F9018958081F4CFB8
:100D5000CF93DF93CDB7DEB7C054D1090FB6F89467
:100D6000DEBF0FBECDBF789484B5826084BD84B5EC
:100D7000816084BD85B5826085BD85B5816085BD96
:100D800080916E00816080936E001092810080914E
:100D900081008260809381008091810081608093D6
:100DA0008100809180008160809380008091B100FB
:100DB00084608093B1008091B00081608093B00026
:100DC00080917A00846080937A0080917A008260BA
:100DD00080937A0080917A00816080937A0080917C
:100DE0007A00806880937A001092C100E0917002CE
:100DF000F091710282E08083E0916C02F0916D02CB
:100E00001082E0916E02F0916F028FEC808310925D
:100E10007802E0917402F091750286E08083E0919F
:100E20007202F0917302808180618083E09172028E
:100E3000F0917302808188608083E0917202F0916A
:100E40007302808180688083E0917202F091730266
:100E500080818F7D808388248394912C24E0422E8E
:100E6000512C612C712CCE0101966C011092610302
:100E70001092600310924904109248048EE0E6E05C
:100E8000F1E0AAEFB3E001900D928A95E1F7AFEFA0
:100E9000BFEFB0934D04A0934C04B0934B04A093C8
:100EA0004A0490924104809240049CA28BA28BE061
:100EB00090E0A0E0B0E08DA39EA3AFA3B8A7A2E00E
:100EC000B0E0BAA7A9A79EA68DA64FA658AA69AA60
:100ED0007AAABCABABABEEE1F0E0F8AFEFAB83E2EC
:100EE00090E08C0F9D1F9093450480934404A3E0F1
:100EF000B0E0B0934704A09346040E940A0286E043
:100F0000282E83E0382EB12CA12C80916003909183
:100F10006103A816B906F0F5F10160817181828143
:100F200093812AE0A6010E940408F60101900020A6
:100F3000E9F731978F010C191D09B8016F5F7F4FD9
:100F400090E080E00E940E0A7C01009701F1DC0134
:100F50001C92B6010E94DD0AA801B70180E692E06A
:100F60000E945F0042E050E06CE572E080E692E0B3
:100F70000E945F00E114F10419F0C7010E94FC080F
:100F8000BFEFAB1ABB0AE6E02E0E311CBECF10E05D
:100F900000E0E2CF80E090E0892B09F467CF0E9467
:100FA000C900882309F462CF0E9400005FCFE0E609
:100FB000F2E01382128288EE93E0A0E0B0E0848336
:100FC0009583A683B78388E191E09183808385EC44
:100FD00090E09587848784EC90E09787868780EC03
:100FE00090E0918B808B81EC90E0938B828B82ECF4
:100FF00090E0958B848B86EC90E0978B868B118E9E
:10100000128E138E148E0895BB272A3051F4992323
:1010100042F4BDE290958095709561957F4F8F4F1A
:101020009F4F0C941408BB27FA01A62F6217710575
:1010300081059105330B30FB66F0AA27660F771FF9
:10104000881F991FAA1FA21710F0A21B6395385082
:10105000A9F7A05DAA3308F0A95DA19336F7B111F5
:10106000B1931082CA010C948509B0E0A0E0EBE3D3
:10107000F8E00C94DB09FA01238120FD07C080E031
:1010800090E0CDB7DEB7E8E00C94F7091616170626
:10109000B4F77A018C01EB016C01C130D10561F02C
:1010A000C7010E9495098F3F980749F3F601819384
:1010B0006F0121970A9789F7F6011082C801E1CFE5
:1010C0000F931F93CF93DF938230910510F482E04A
:1010D00090E0E0915604F091570430E020E0B0E059
:1010E000A0E0309799F42115310509F44AC0281B76
:1010F000390B24303105D8F58A819B816115710542
:1011000089F1FB0193838283FE0111C040815181EB
:101110000281138148175907E0F04817590799F4DD
:10112000109761F012960C93129713961C933296B7
:10113000CF01DF91CF911F910F9108950093560435
:1011400010935704F4CF2115310551F0421753077E
:1011500038F0A901DB019A01BD01DF01F801C1CF1F
:10116000EF01F9CF9093570480935604CDCFFE0141
:10117000E20FF31F81939193225031093983288321
:10118000D7CF2091540430915504232B41F4209162
:1011900002013091030130935504209354042091AF
:1011A0000001309101012115310541F42DB73EB701
:1011B0004091040150910501241B350BE09154042A
:1011C000F0915504E217F307A0F42E1B3F0B2817EC
:1011D000390778F0AC014E5F5F4F2417350748F0B0
:1011E0004E0F5F1F50935504409354048193919385
:1011F0009FCFF0E0E0E09CCFCF93DF930097E9F042
:10120000FC01329713821282A0915604B0915704C8
:10121000ED0130E020E01097A1F420813181820FB0
:10122000931F20915404309155042817390709F071
:1012300061C0F0935504E0935404DF91CF91089579
:10124000EA01CE17DF07E8F54A815B819E0141156F
:101250005105B1F7E901FB83EA8349915991C40F24
:10126000D51FEC17FD0761F4808191810296840FF0
:10127000951FE90199838883828193819B838A8367
:10128000F0E0E0E012968D919C9113970097B9F5EC
:101290002D913C911197CD010296820F931F2091C1
:1012A0005404309155042817390739F6309751F511
:1012B0001092570410925604B0935504A09354040E
:1012C000BCCFD383C28340815181840F951FC8173F
:1012D000D90761F44E5F5F4F88819981480F591F8C
:1012E000518340838A819B819383828321153105B9
:1012F00009F0B0CFF0935704E09356049ECFFD0160
:10130000DC01C0CF13821282D7CFDC01FC01672F32
:1013100071917723E1F7329704C07C916D937083CC
:101320006291AE17BF07C8F30895CF93DF93EC0126
:101330002B8120FF1AC026FF0CC02F7B2B838E81B0
:101340009F8101969F838E838A8190E0DF91CF9168
:10135000089522FF18C0E881F9818081082E000CD1
:10136000990B009729F420622B838FEF9FEFEECF2C
:101370003196F983E8832E813F812F5F3F4F3F8372
:101380002E839927E3CFEA85FB85099597FFF3CF55
:101390002B81019621F080E2822B8B83E6CF80E1C6
:1013A000FBCF2F923F924F925F926F927F928F92DC
:1013B0009F92AF92BF92CF92DF92EF92FF920F93E4
:1013C0001F93CF93DF93CDB7DEB7CA1BDB0B0FB6EE
:1013D000F894DEBF0FBECDBF09942A8839884888AB
:1013E0005F846E847D848C849B84AA84B984C88441
:1013F000DF80EE80FD800C811B81AA81B981CE0F38
:10140000D11D0FB6F894DEBF0FBECDBFED0108951C
:10141000EE0FFF1F0590F491E02D0994B0E0A0E0DD
:10142000E4E1FAE00C94D3098C01009751F4CB016C
:101430000E9460088C01C801CDB7DEB7E0E10C94D2
:10144000EF09FC01E60FF71F9C0122503109E2175A
:10145000F30708F49DC0D901CD91DC911197C6170F
:10146000D70798F0C530D10530F3CE010497861721
:10147000970708F3C61BD70B2297C193D1936D939F
:101480007C93CF010E94FC08D6CF5B01AC1ABD0A49
:101490004C018C0E9D1EA0915604B0915704512C06
:1014A000412CF12CE12C109731F58091540490914E
:1014B00055048815990509F05CC04616570608F0D2
:1014C00058C08091000190910101009741F48DB7BF
:1014D0009EB74091040150910501841B950BE817BC
:1014E000F90708F055C0F0935504E0935404F9014E
:1014F00071836083A0CF8D919C91119712966C900F
:10150000129713967C901397A815B90559F56C019D
:1015100042E0C40ED11CCA14DB0420F1AC014A190C
:101520005B09DA011296159780F06282738251830B
:101530004083D9016D937C93E114F10471F0D701DC
:101540001396FC93EE93129776CF22968C0F9D1FE5
:10155000F90191838083F301EFCFF0935704E09377
:10156000560469CF4816590608F42C017D01D301B1
:101570009ACFCB010E9460087C01009749F0AE0130
:10158000B8010E94CB0AC8010E94FC08870153CF12
:1015900010E000E050CFFB01DC0102C001900D9291
:1015A00041505040D8F70895FB01DC018D91019026
:1015B00080190110D9F3990B0895FB01DC0101900A
:1015C0000D920020E1F70895B0E0A0E0EAEEFAE025
:1015D0000C94E109AE01475F5F4F6F8178858D8183
:1015E0009E810E944D0BE2E00C94FD090F931F9326
:1015F000CF93DF93182F092FEB018B8181FD09C059
:101600001FEF0FEF812F902FDF91CF911F910F913F
:10161000089582FF14C02E813F818C819D812817FF
:1016200039073CF4E881F981CF01019699838883D9
:1016300010838E819F8101969F838E83E3CFE885FF
:10164000F985812F0995892BA1F3DACFEF92FF92CB
:101650000F931F93CF93DF93FB01238121FF19C0C9
:10166000EB018C01F12CE12CF80181918F018111AA
:1016700006C0C701CDB7DEB7E6E00C94F909E885EE
:10168000F985BE010995892B79F3EE24EA94FE2CA5
:10169000EBCFEE24EA94FE2CECCFABE0B0E0E3E538
:1016A000FBE00C94D1097C013B018A01FC0117820B
:1016B0001682838181FFC8C1CE0101965C01F701CA
:1016C0009381F30193FD859193FF81913F018823DD
:1016D00009F453C1853239F493FD859193FF8191CB
:1016E0003F01853229F4B70190E00E94F60AE7CF66
:1016F000912C212C312CFFE1F31538F08B3211F1B4
:1017000090F4803209F1833229F137FC3CC020ED9E
:10171000280F2A3050F536FE20C08AE0989E200D12
:101720001124922E06C08D3291F0803371F76894A7
:1017300030F8F30193FD859193FF81913F01811171
:10174000DACF21C0689431F8689432F8F2CF689407
:1017500033F8EFCF689434F8ECCFEAE02E9E200DFA
:101760001124222E689435F8E4CF8E3229F436FC09
:1017700004C1689436F8DDCF8C3619F4689437F8D4
:10178000D8CF8836B1F2982F9F7D95549330E0F0F2
:101790008336A1F18337C1F1833509F063C0280195
:1017A000F2E04F0E511CF801C080D180692D70E02D
:1017B00036FC02C06FEF7FEFC6010E94270D4C017F
:1017C000689437F882010AC00C5F1F4FFFE3F9836A
:1017D00088248394912C6501E89437F833FE2DC05A
:1017E000522C8114910471F5552009F468CFB7018A
:1017F00080E290E00E94F60A5A94F6CFF8018081C8
:1018000089830E5F1F4FE4CF2801F2E04F0E511C79
:10181000F801C080D180692D70E036FC02C06FEF06
:101820007FEFC6010E94320D4C018201D5CFB70176
:1018300080E290E00E94F60A2A942814190409F024
:10184000B0F7CECFF60137FC859137FE81916F015D
:10185000B70190E00E94F60A51105A94F1E08F1AF5
:101860009108BFCF843619F0893609F077C0F801A6
:1018700037FE6BC060817181828193810C5F1F4F45
:10188000F32DFF763F2E97FF09C0909580957095B8
:1018900061957F4F8F4F9F4F689437F82AE030E073
:1018A000A5010E943D0DC82ECA188C2C432C36FE73
:1018B0000CC0E89440F8C91440F434FE05C032FC72
:1018C00003C0F32DFE7E4F2E892C44FE95C0FE01F1
:1018D000EC0DF11D8081803309F087C0242D297E15
:1018E000422E842D8870582E43FC95C040FE8FC038
:1018F0009C2C821418F42C0C922C981844FE91C045
:10190000B70180E390E00E94F60A42FE09C088E732
:1019100090E041FE02C088E590E0B7010E94F60A1F
:10192000C91408F48AC0CA94D12C9FEFC91AD90AE5
:10193000CA0CDB1CF60182916F01B70190E00E9496
:10194000F60AAC14BD04B1F74FCF60817181072E48
:10195000000C880B990B0E5F1F4F92CFD32CE8948D
:10196000D4F82AE030E0853739F1232D297FD22EB3
:101970008F3601F148F48835A9F0F7018681978107
:101980002B96E2E10C94ED09803749F08837A9F7EE
:10199000D4FE02C06894D2F820E130E00DC0689413
:1019A000D4F8F6CF34FE03C0822F8660D82E20E113
:1019B00032E002C028E030E0F801D7FE0FC06081BD
:1019C0007181828193810C5F1F4FA5010E943D0DA3
:1019D000C82ECA183D2CE89437F867CF6081718112
:1019E00090E080E00E5F1F4FF0CF42FC02C0839476
:1019F00078CF8394839475CF842D867809F471CF42
:101A0000F6CFB70180E290E00E94F60A8394821438
:101A1000C0F3512C73CF522C5818821408F46ECF97
:101A2000F8CF842D867809F47BCF8BE241FE80E2EB
:101A300047FC8DE2B70190E071CFB70180E390E001
:101A40000E94F60A9A946CCF8FEF9FEF99CFFC011A
:101A50000590615070400110D8F7809590958E0FD9
:101A60009F1F0895FC016150704001900110D8F74C
:101A7000809590958E0F9F1F0895FA01AA27283010
:101A800051F1203181F1E8946F936E7F6E5F7F4F4B
:101A90008F4F9F4FAF4FB1E03ED0B4E03CD0670FC7
:101AA000781F891F9A1FA11D680F791F8A1F911D1A
:101AB000A11D6A0F711D811D911DA11D20D009F46A
:101AC00068943F912AE0269F11243019305D3193AC
:101AD000DEF6CF010895462F4770405D4193B3E095
:101AE0000FD0C9F7F6CF462F4F70405D4A3318F03C
:101AF000495D31FD4052419302D0A9F7EACFB4E0ED
:101B0000A6959795879577956795BA95C9F70097A4
:101B10006105710508959B01AC010A2E0694579545
:101B2000479537952795BA95C9F7620F731F841F9C
:101B3000951FA01D0895F894FFCF00005804800061
:101B40007374617274000000050000000000000062
:101B50000000FF005F008C004C01BD009B00AF0047
:101B6000537461636B206F766572666C6F77207754
:101B700068656E20747279696E6720746F20707565
:101B800073682076616C756520746F20737461636F
:101B90006B2E2041626F727465642E0A005374616B
:101BA000636B20756E646572666C6F77207768650D
:101BB0006E20747279696E6720746F20706F702068
:101BC00066726F6D20737461636B2E2041626F7259
:101BD0007465642E0A0072756E74696D6520657295
:101BE000726F722E2025730A007374617274006E16
:101BF0006F20656E74727920706F696E7400696E03
:101C000076616C69642070696E00696E76616C69DA
:101C10006420737472696E67005C256300696E7678
:101C2000616C696420737461746520666F722070E2
:101C3000696E007261780072627800726378007277
:101C400064780072380072390072313000723131BC
:101C5000007231320072313300723134007231352A
:101C6000006570006370000A09496E202752756E86
:101C7000496E737472756374696F6E7328292720B7
:101C80003A20756E6B6E6F776E20696E7374727525
:0A1C90006374696F6E000D0A000016
:107E0000112484B714BE81FFF0D085E080938100F7
:107E100082E08093C00088E18093C10086E0809377
:107E2000C20080E18093C4008EE0C9D0259A86E02C
:107E300020E33CEF91E0309385002093840096BBD3
:107E4000B09BFECF1D9AA8958150A9F7CC24DD24C4
:107E500088248394B5E0AB2EA1E19A2EF3E0BF2EE7
:107E6000A2D0813461F49FD0082FAFD0023811F036
:107E7000013811F484E001C083E08DD089C08234E0
:107E800011F484E103C0853419F485E0A6D080C0E4
:107E9000853579F488D0E82EFF2485D0082F10E0AE
:107EA000102F00270E291F29000F111F8ED06801E7
:107EB0006FC0863521F484E090D080E0DECF843638
:107EC00009F040C070D06FD0082F6DD080E0C81688
:107ED00080E7D80618F4F601B7BEE895C0E0D1E017
:107EE00062D089930C17E1F7F0E0CF16F0E7DF06D8
:107EF00018F0F601B7BEE89568D007B600FCFDCFD4
:107F0000A601A0E0B1E02C9130E011968C91119780
:107F100090E0982F8827822B932B1296FA010C0160
:107F200087BEE89511244E5F5F4FF1E0A038BF0790
:107F300051F7F601A7BEE89507B600FCFDCF97BE46
:107F4000E89526C08437B1F42ED02DD0F82E2BD052
:107F50003CD0F601EF2C8F010F5F1F4F84911BD097
:107F6000EA94F801C1F70894C11CD11CFA94CF0C13
:107F7000D11C0EC0853739F428D08EE10CD085E9AC
:107F80000AD08FE07ACF813511F488E018D01DD067
:107F900080E101D065CF982F8091C00085FFFCCF94
:107FA0009093C60008958091C00087FFFCCF809118
:107FB000C00084FD01C0A8958091C6000895E0E648
:107FC000F0E098E1908380830895EDDF803219F02E
:107FD00088E0F5DFFFCF84E1DECF1F93182FE3DFCA
:107FE0001150E9F7F2DF1F91089580E0E8DFEE27F6
:047FF000FF270994CA
:027FFE00040479
:00000001FF
