:020000040000FA
:100000000C9435000C945D000C945D000C945D0024
:100010000C945D000C945D000C945D000C945D00EC
:100020000C945D000C945D000C945D000C945D00DC
:100030000C945D000C945D000C945D000C945D00CC
:100040000C94B4050C945D000C9424060C94FE05ED
:100050000C945D000C945D000C945D000C945D00AC
:100060000C945D000C945D00B80711241FBECFEF07
:10007000D8E0DEBFCDBF12E0A0E0B1E0E0EEF8E1F5
:1000800002C005900D92AC35B107D9F723E0ACE57D
:10009000B2E001C01D92AC30B207E1F710E0C5E359
:1000A000D0E004C02197FE010E94A809C433D10703
:1000B000C9F70E9462060C946E0C0C940000AF927B
:1000C000BF92CF92DF92EF92FF920F931F93CF9345
:1000D000DF936C017B018B01040F151FEB015E01A7
:1000E000AE18BF08C017D10759F06991D601ED913C
:1000F000FC910190F081E02DC6010995892B79F7DB
:10010000C501DF91CF911F910F91FF90EF90DF908C
:10011000CF90BF90AF900895FC01538D448D252F53
:1001200030E0842F90E0821B930B541710F0CF9691
:10013000089501970895FC01918D828D981761F0C3
:10014000A28DAE0FBF2FB11D5D968C91928D9F5FDA
:100150009F73928F90E008958FEF9FEF0895FC01B9
:10016000918D828D981731F0828DE80FF11D858D6C
:1001700090E008958FEF9FEF0895FC01918D228DFF
:10018000892F90E0805C9F4F821B91098F73992784
:1001900008958CE592E00E94BD0021E0892B09F4CE
:1001A00020E0822F089580E090E0892B29F00E94C2
:1001B000C90081110C9400000895FC01A48DA80FC2
:1001C000B92FB11DA35ABF4F2C91848D90E0019699
:1001D0008F739927848FA689B7892C93A089B189B9
:1001E0008C91837080648C93938D848D981306C05A
:1001F0000288F389E02D80818F7D80830895EF92BE
:10020000FF920F931F93CF93DF93EC0181E0888FD0
:100210009B8D8C8D98131AC0E889F989808185FFA0
:1002200015C09FB7F894EE89FF896083E889F98942
:1002300080818370806480839FBF81E090E0DF9144
:10024000CF911F910F91FF90EF900895F62E0B8D97
:1002500010E00F5F1F4F0F731127E02E8C8D8E1152
:100260000CC00FB607FCFACFE889F989808185FFB9
:10027000F5CFCE010E94DD00F1CFEB8DEC0FFD2F0D
:10028000F11DE35AFF4FF0829FB7F8940B8FEA8974
:10029000FB8980818062CFCFCF93DF93EC01888D83
:1002A0008823B9F0AA89BB89E889F9898C9185FDF1
:1002B00003C0808186FD0DC00FB607FCF7CF8C917F
:1002C00085FFF2CF808185FFEDCFCE010E94DD005A
:1002D000E9CFDF91CF910895FC01E65AFF4F2081CD
:1002E00031812115310561F4609106037091070396
:1002F00083E691E00E94F90981E090E00E946E0C93
:10030000215031093183208366E0629FA001639F01
:10031000500D1124840F951FFC0180819181089557
:100320009F938F938CE991E09F938F93E2E0F3E0AA
:1003300085818F9384818F930E94B70981E090E03B
:100340000E946E0C4F925F926F927F928F929F925B
:10035000AF92BF92CF92DF92EF92FF920F931F93D3
:10036000CF93DF93CDB7DEB7E2970FB6F894DEBF39
:100370000FBECDBF8C01FC01E250FF4FDC01A65C3B
:10038000BE4F8D909C90119790E080E01A96881651
:10039000990619F48FEF9FEF1DC0C080D180E280D5
:1003A000F38001963E964D915C91119770E060E06C
:1003B000C416D506E606F70651F72EE0289FF00191
:1003C000299FF00D1124E00FF11FE250FF4F8081B3
:1003D00091810197092E000CAA0BBB0B78012EEB23
:1003E000E21A2EEFF20AF701208131818F3FFFEFF1
:1003F0009F07AF07BF07A9F1A90170E060E084176C
:100400009507A607B7076CF5F801EA5BFE4F8081F8
:1004100091818F3F980729F10196D7018D939C9385
:100420008FEF9FEF91838083329791838083C80100
:100430000E94A201E2960FB6F894DEBF0FBECDBFB8
:10044000DF91CF911F910F91FF90EF90DF90CF90B0
:10045000BF90AF909F908F907F906F905F904F90E4
:100460000895232BB1F53801B4EC6B1ABEEF7B0A6B
:10047000F30180819181892B61F55801F4EFAF0E72
:10048000B11CD12CC12C8C149D0421F485EB91E07E
:100490000E949001B5018FEA91E00E94AE092EE022
:1004A000A20EB11C892B09F04AC08EE08C9DF00190
:1004B0008D9DF00D1124E00FF11FE250FF4F808160
:1004C0009181D7018D939C9381E090E0F30191831A
:1004D0008083D7012D913C91F801E05CFE4F808133
:1004E00091812817390708F0A5CF9AE0B92EB29E5E
:1004F000A001B39E500D1124329780819181840F09
:10050000951FFC01DE011B962B2D01900D922A9563
:10051000E1F7FC01C080D180F3E1CF16D10409F4EA
:1005200019C38CF431E0C316D10409F4FCC142E0D4
:10053000C416D10409F4EEC28DE292E0A9CFFFEF18
:10054000CF1ADF0AA0CF8DE1C816D10409F4B5C0D7
:100550009EE1C916D10481F1A7E1CA16D10461F761
:10056000C8010E946C010D8402C0880F991F0A9473
:10057000E2F7092E000CAA0BBB0BF801E65AFF4F5D
:10058000208131812F30310508F07AC0A9014F5FF9
:100590005F4F5183408346E0429FF001439FF00D3F
:1005A0001124E00FF11F80839183A283B38382E043
:1005B00090E095838483CEC0C8010E946C010197AE
:1005C00009F0C8C0FE0131966F01DF011D92BA9497
:1005D000E9F782E2898340910203509103036AE0C4
:1005E00070E0CE0102960E94E507892B09F4B2C0A3
:1005F000F60101900020E9F73197BF016C197D09E0
:10060000D60190E080E09601280F391FAD014C190A
:100610005D0946175707B4F1D9011C92F601019004
:100620000020E9F7319782E28083188E1F8ADE8AE4
:10063000CD8A84E090E09A8F898F86E0FE017596DE
:10064000DE01919601900D928A95E1F786E0FE0118
:10065000B196DE019D9601900D928A95E1F786E0B4
:10066000FE01BD96DE01979601900D928A95E1F705
:10067000F801E65AFF4F208131812F30310550F0CB
:100680000E9456064D914A3009F4BDCF0196F901FA
:100690004083B9CFC90101969183808386E0829F10
:1006A000D001839FB00D1124A00FB11FFE01B7969A
:1006B00001900D928A95E1F74DC0C8010E946C012E
:1006C0005C01C8010E946C016C01C5010297029790
:1006D00008F0CBC0F6018081823241F40190002005
:1006E000E9F732978081D601823241F084EC91E0C3
:1006F000CFCE11968C9111978C93D901F601019070
:100700000020E9F73197EC19FD099D012F5F3F4F5C
:10071000CD018C199D098E179F0758F323E0A2166F
:10072000B104E9F45090040340900503EC0DFD1D65
:1007300031971082B12CA12C83ED682E81E0782EA8
:10074000F60101900020E9F73197EC19FD09AE168A
:10075000BF0650F0F70180819181019666CE5090DE
:10076000060340900703E2CFD601AA0DBB1D8C9172
:100770008C3509F071C045013FEF831A930A8E163C
:100780009F0608F069C0F601E80DF91D80818236E8
:1007900009F458C01CF5873209F440C0B4F4823221
:1007A00009F441C0282F082E000C330B3F938F9380
:1007B0007F926F924F925F920E94B7090F900F90B5
:1007C0000F900F900F900F9016C08C3511F181365D
:1007D00049F7652D742D87E090E00BC0823769F1F1
:1007E0007CF48636A1F18E36E9F6652D742D8AE00B
:1007F00090E00E94C90954014FEFA41AB40AA0CF97
:100800008437B1F0863771F6652D742D8BE090E05A
:10081000F0CF652D742D8CE590E0EBCF652D742D18
:1008200087E290E0E6CF652D742D82E290E0E1CF83
:10083000652D742D89E090E0DCCF652D742D8DE061
:1008400090E0D7CF652D742D88E090E0D2CF652D54
:10085000742D8CE090E0CDCF652D742D082E000C0A
:10086000990B0E94C9094501C6CF84E0A816B104BE
:1008700009F070CFC8010E946C018230910518F018
:1008800087ED91E005CEA8E0CA16D104D0F1A6010B
:10089000485051094630510580F0BEE0CB1AD108CE
:1008A0002C2DE6E0CE16D10408F02FEFF6E0CF169F
:1008B000D104A8F08DEE91E0EBCD24B161E070E0C1
:1008C000042E01C0660F0A94EAF7262B24B925B13D
:1008D00001C0880F4A95EAF7822B85B93BCF37B123
:1008E00041E050E0022E01C0440F0A94EAF7342B95
:1008F00037B938B101C0880F2A95EAF7832B88B938
:1009000029CF2AB141E050E00C2C01C0440F0A94D9
:10091000EAF7242B2AB92BB101C0880FCA94EAF751
:10092000822B8BB917CFDC0116968D919C91F80123
:10093000E65AFF4F5F01049709F0C4C0CD84DE84FE
:1009400069EF71E0C6010E94AE09892B09F493C0DA
:100950006DEF71E0C6010E94AE09892B09F48EC0CB
:1009600061E072E0C6010E94AE09892B09F489C0DA
:1009700065E072E0C6010E94AE09892B09F484C0CB
:1009800069E072E0C6010E94AE09892B09F47FC0BC
:100990006CE072E0C6010E94AE09892B09F47AC0AE
:1009A0006FE072E0C6010E94AE09892B09F475C0A0
:1009B00063E172E0C6010E94AE09892B09F470C0A0
:1009C00067E172E0C6010E94AE09892B09F46BC091
:1009D0006BE172E0C6010E94AE09892B09F466C082
:1009E0006FE172E0C6010E94AE09892B09F461C073
:1009F00063E272E0C6010E94AE09892B09F45CC073
:100A000067E272E0C6010E94AE09892B09F457C063
:100A10006AE272E0C6010E94AE09892B09F052C059
:100A200083E890E026E0289FF001299FF00D112433
:100A3000E00FF11FE45AFF4FDE015B96822F019019
:100A40000D928A95E1F7D5018D919C9111978F3088
:100A5000910508F015CEAC014F5F5F4F4D935C934D
:100A6000289FD001299FB00D1124A00FB11F86E04F
:100A7000FE017B961DCE81E090E0D4CF82E090E035
:100A8000D1CF83E090E0CECF84E090E0CBCF85E083
:100A900090E0C8CF86E090E0C5CF87E090E0C2CF7D
:100AA00088E090E0BFCF89E090E0BCCF8AE090E0A2
:100AB000B9CF8BE090E0B6CF8CE090E0B3CF8BEB7A
:100AC00090E0B0CF86E0FE013D96DE0155960190A4
:100AD0000D928A95E1F78D859E85AF85B889F501E0
:100AE000208131812F30310508F0CACDA9014F5F37
:100AF0005F4F518340838D8B9E8BAF8BB88F86E089
:100B0000829FD001839FB00D1124A00FB11FFE0161
:100B10007596CECDDC011896AD90BC90C8010E94B0
:100B20006C01A114B10409F415CE26E02A9DF00150
:100B30002B9DF00D1124E45AFF4FE00FF11F092EF9
:100B4000000CAA0BBB0B80839183A283B383D58255
:100B5000C48200CEC8010E946C016C01C8010E94D1
:100B60006C018C299D2905CD1F920F920FB60F9213
:100B700011242F933F938F939F93AF93BF938091B3
:100B8000FE029091FF02A0910003B0910103309109
:100B9000FD0223E0230F2D3758F50196A11DB11D4D
:100BA0002093FD028093FE029093FF02A093000326
:100BB000B09301038091F9029091FA02A091FB0297
:100BC000B091FC020196A11DB11D8093F902909392
:100BD000FA02A093FB02B093FC02BF91AF919F91E8
:100BE0008F913F912F910F900FBE0F901F901895EE
:100BF00026E8230F0296A11DB11DD2CF1F920F929E
:100C00000FB60F9211242F933F934F935F936F93DF
:100C10007F938F939F93AF93BF93EF93FF938CE555
:100C200092E00E94DD00FF91EF91BF91AF919F9103
:100C30008F917F916F915F914F913F912F910F9085
:100C40000FBE0F901F9018951F920F920FB60F9224
:100C500011242F938F939F93EF93FF93E0916C0256
:100C6000F0916D028081E0917202F091730282FD39
:100C70001BC09081809175028F5F8F7320917602E7
:100C8000821741F0E0917502F0E0E45AFD4F958F34
:100C900080937502FF91EF919F918F912F910F900B
:100CA0000FBE0F901F9018958081F4CF60910603BE
:100CB0007091070386E291E00E94F90981E090E0DB
:100CC0000E946E0CCF93DF93CDB7DEB7C856D10923
:100CD0000FB6F894DEBF0FBECDBF789484B58260A6
:100CE00084BD84B5816084BD85B5826085BD85B5D0
:100CF000816085BD80916E00816080936E0010924E
:100D000081008091810082608093810080918100C8
:100D10008160809381008091800081608093800059
:100D20008091B10084608093B1008091B0008160B7
:100D30008093B00080917A00846080937A008091E3
:100D40007A00826080937A0080917A00816080933B
:100D50007A0080917A00806880937A001092C100B6
:100D6000E0916C02F0916D0282E08083E091680274
:100D7000F09169021082E0916A02F0916B028FECAF
:100D8000808310927402E0917002F091710286E00B
:100D90008083E0916E02F0916F0280818061808398
:100DA000E0916E02F0916F02808188608083E09113
:100DB0006E02F0916F02808180688083E0916E0204
:100DC000F0916F0280818F7D808388E491E00E94A2
:100DD00010088C01FC01E65AFF4F11821082E85185
:100DE000FF4F11821082DC01AC50BF4F8EE0E6E075
:100DF000F1E001900D928A95E1F7F801EA5BFE4F70
:100E00008FEF9FEF918380833297918380833A970E
:100E100021E030E0318320836E0187E6C80ED11CCB
:100E200084E290E0D6018D939C937E01B5E6EB0EB3
:100E3000F11C85E290E0F701918380833A83298356
:100E4000C6019927092E000CAA0BBB0B8B839C8330
:100E5000AD83BE8382E090E098878F833C872B87A9
:100E6000412C512C320143944D865E866F86788AE0
:100E70009A8B898BE7E1F0E0FE8BED8B53E0852EBA
:100E8000912CA12CB12C8F8A988EA98EBA8E9C8F12
:100E90008B8FA3E1B0E0B8A3AF8F9AA789A748E0F2
:100EA00050E05AAB49AB3CAB2BABA7015527052E05
:100EB000000C660B770B4DAB5EAB6FAB78AF9AAFA8
:100EC00089AF3EAF2DAF23964CAE5DAE6EAE7FAE1A
:100ED000239725969FAF8EAF25972996FFAFEEAF4C
:100EE00029972D968CAE9DAEAEAEBFAE2D972F96A8
:100EF0009FAF8EAF2F976396BFAFAEAF63976D96E0
:100F00009FAF8EAF6D9787E090E0A5969FAF8EAFB5
:100F1000A597F801E25CFE4FCE0101969183808394
:100F200032968AE090E091838083C8010E94A201FA
:100F3000D601ED91FC918081D801A457BF4F9C91BF
:100F4000892B8083F701A081B1818C91F801EA5748
:100F5000FF4F9081892B8C9300E010E00115110563
:100F6000E9F30E94C9008823C9F30E940000F6CF6C
:100F7000ECE5F2E01382128288EE93E0A0E0B0E0AC
:100F800084839583A683B78388E191E091838083EE
:100F900085EC90E09587848784EC90E0978786873E
:100FA00080EC90E0918B808B81EC90E0938B828B36
:100FB00082EC90E0958B848B86EC90E0978B868B0F
:100FC000118E128E138E148E0895B0E0A0E0EBEE19
:100FD000F7E00C947B09FA01238120FD07C080E033
:100FE00090E0CDB7DEB7E8E00C9497091616170627
:100FF000B4F77A018C01EB016C01C130D10561F0CD
:10100000C7010E9435098F3F980749F3F601819384
:101010006F0121970A9789F7F6011082C801E1CF85
:101020000F931F93CF93DF938230910510F482E0EA
:1010300090E0E0910A03F0910B0330E020E0B0E093
:10104000A0E0309799F42115310509F44AC0281B16
:10105000390B24303105D8F58A819B8161157105E2
:1010600089F1FB0193838283FE0111C0408151818C
:101070000281138148175907E0F04817590799F47E
:10108000109761F012960C93129713961C93329658
:10109000CF01DF91CF911F910F91089500930A0323
:1010A00010930B03F4CF2115310551F0421753076C
:1010B00038F0A901DB019A01BD01DF01F801C1CFC0
:1010C000EF01F9CF90930B0380930A03CDCFFE017C
:1010D000E20FF31F819391932250310939832883C2
:1010E000D7CF2091080330910903232B41F420919D
:1010F00002013091030130930903209308032091EA
:101100000001309101012115310541F42DB73EB7A1
:101110004091040150910501241B350BE091080317
:10112000F0910903E217F307A0F42E1B3F0B2817D9
:10113000390778F0AC014E5F5F4F2417350748F050
:101140004E0F5F1F509309034093080381939193BF
:101150009FCFF0E0E0E09CCFCF93DF930097E9F0E2
:10116000FC01329713821282A0910A03B0910B0303
:10117000ED0130E020E01097A1F420813181820F51
:10118000931F20910803309109032817390709F0AC
:1011900061C0F0930903E0930803DF91CF910895B4
:1011A000EA01CE17DF07E8F54A815B819E01411510
:1011B0005105B1F7E901FB83EA8349915991C40FC5
:1011C000D51FEC17FD0761F4808191810296840F91
:1011D000951FE90199838883828193819B838A8308
:1011E000F0E0E0E012968D919C9113970097B9F58D
:1011F0002D913C911197CD010296820F931F209162
:101200000803309109032817390739F6309751F54B
:1012100010920B0310920A03B0930903A0930803E2
:10122000BCCFD383C28340815181840F951FC817DF
:10123000D90761F44E5F5F4F88819981480F591F2C
:10124000518340838A819B81938382832115310559
:1012500009F0B0CFF0930B03E0930A039ECFFD019A
:10126000DC01C0CF13821282D7CFCF93DF93EC0182
:101270002B8120FF1AC026FF0CC02F7B2B838E8171
:101280009F8101969F838E838A8190E0DF91CF9129
:10129000089522FF18C0E881F9818081082E000C92
:1012A000990B009729F420622B838FEF9FEFEECFED
:1012B0003196F983E8832E813F812F5F3F4F3F8333
:1012C0002E839927E3CFEA85FB85099597FFF3CF16
:1012D0002B81019621F080E2822B8B83E6CF80E187
:1012E000FBCF2F923F924F925F926F927F928F929D
:1012F0009F92AF92BF92CF92DF92EF92FF920F93A5
:101300001F93CF93DF93CDB7DEB7CA1BDB0B0FB6AE
:10131000F894DEBF0FBECDBF09942A88398848886B
:101320005F846E847D848C849B84AA84B984C88401
:10133000DF80EE80FD800C811B81AA81B981CE0FF8
:10134000D11D0FB6F894DEBF0FBECDBFED010895DD
:10135000EE0FFF1F0590F491E02D0994FB01DC01D5
:101360008D91019080190110D9F3990B0895B0E087
:10137000A0E0EDEBF9E00C948109AE01475F5F4F0F
:101380006F8178858D819E810E94200AE2E00C9415
:101390009D090F931F93CF93DF93182F092FEB0114
:1013A0008B8181FD09C01FEF0FEF812F902FDF91FF
:1013B000CF911F910F91089582FF14C02E813F811C
:1013C0008C819D81281739073CF4E881F981CF0190
:1013D00001969983888310838E819F8101969F83D4
:1013E0008E83E3CFE885F985812F0995892BA1F3B9
:1013F000DACFEF92FF920F931F93CF93DF93FB010E
:10140000238121FF19C0EB018C01F12CE12CF801A3
:1014100081918F01811106C0C701CDB7DEB7E6E02B
:101420000C949909E885F985BE010995892B79F312
:10143000EE24EA94FE2CEBCFEE24EA94FE2CECCFC3
:10144000ABE0B0E0E6E2FAE00C9471097C013B010C
:101450008A01FC0117821682838181FFC8C1CE01F7
:1014600001965C01F7019381F30193FD859193FF50
:1014700081913F01882309F453C1853239F493FDEA
:10148000859193FF81913F01853229F4B70190E066
:101490000E94C909E7CF912C212C312CFFE1F315D3
:1014A00038F08B3211F190F4803209F1833229F156
:1014B00037FC3CC020ED280F2A3050F536FE20C006
:1014C0008AE0989E200D1124922E06C08D3291F054
:1014D000803371F7689430F8F30193FD859193FFA1
:1014E00081913F018111DACF21C0689431F868946D
:1014F00032F8F2CF689433F8EFCF689434F8ECCF39
:10150000EAE02E9E200D1124222E689435F8E4CFB7
:101510008E3229F436FC04C1689436F8DDCF8C365F
:1015200019F4689437F8D8CF8836B1F2982F9F7D98
:1015300095549330E0F08336A1F18337C1F18335C0
:1015400009F063C02801F2E04F0E511CF801C08081
:10155000D180692D70E036FC02C06FEF7FEFC601CD
:101560000E94FA0B4C01689437F882010AC00C5FA4
:101570001F4FFFE3F98388248394912C6501E8943D
:1015800037F833FE2DC0522C8114910471F555208B
:1015900009F468CFB70180E290E00E94C9095A942B
:1015A000F6CFF801808189830E5F1F4FE4CF2801B9
:1015B000F2E04F0E511CF801C080D180692D70E01F
:1015C00036FC02C06FEF7FEFC6010E94050C4C0194
:1015D0008201D5CFB70180E290E00E94C9092A9428
:1015E0002814190409F0B0F7CECFF60137FC859125
:1015F00037FE81916F01B70190E00E94C909511037
:101600005A94F1E08F1A9108BFCF843619F08936C9
:1016100009F077C0F80137FE6BC06081718182816B
:1016200093810C5F1F4FF32DFF763F2E97FF09C06C
:1016300090958095709561957F4F8F4F9F4F6894DF
:1016400037F82AE030E0A5010E94100CC82ECA1815
:101650008C2C432C36FE0CC0E89440F8C91440F49E
:1016600034FE05C032FC03C0F32DFE7E4F2E892CC4
:1016700044FE95C0FE01EC0DF11D8081803309F020
:1016800087C0242D297E422E842D8870582E43FC3D
:1016900095C040FE8FC09C2C821418F42C0C922C08
:1016A000981844FE91C0B70180E390E00E94C909F8
:1016B00042FE09C088E790E041FE02C088E590E064
:1016C000B7010E94C909C91408F48AC0CA94D12C70
:1016D0009FEFC91AD90ACA0CDB1CF60182916F016F
:1016E000B70190E00E94C909AC14BD04B1F74FCF17
:1016F00060817181072E000C880B990B0E5F1F4FC4
:1017000092CFD32CE894D4F82AE030E0853739F131
:10171000232D297FD22E8F3601F148F48835A9F088
:10172000F701868197812B96E2E10C948D09803731
:1017300049F08837A9F7D4FE02C06894D2F820E1B6
:1017400030E00DC06894D4F8F6CF34FE03C0822F89
:101750008660D82E20E132E002C028E030E0F801B7
:10176000D7FE0FC060817181828193810C5F1F4F12
:10177000A5010E94100CC82ECA183D2CE89437F819
:1017800067CF6081718190E080E00E5F1F4FF0CFE6
:1017900042FC02C0839478CF8394839475CF842DC8
:1017A000867809F471CFF6CFB70180E290E00E940D
:1017B000C90983948214C0F3512C73CF522C58184A
:1017C000821408F46ECFF8CF842D867809F47BCF8D
:1017D0008BE241FE80E247FC8DE2B70190E071CFE1
:1017E000B70180E390E00E94C9099A946CCF8FEF13
:1017F0009FEF99CFFC010590615070400110D8F720
:10180000809590958E0F9F1F0895FC016150704048
:1018100001900110D8F7809590958E0F9F1F089525
:10182000FA01AA27283051F1203181F1E8946F9311
:101830006E7F6E5F7F4F8F4F9F4FAF4FB1E03ED0B7
:10184000B4E03CD0670F781F891F9A1FA11D680F55
:10185000791F8A1F911DA11D6A0F711D811D911D88
:10186000A11D20D009F468943F912AE0269F1124FD
:101870003019305D3193DEF6CF010895462F477061
:10188000405D4193B3E00FD0C9F7F6CF462F4F70BC
:10189000405D4A3318F0495D31FD4052419302D01A
:1018A000A9F7EACFB4E0A6959795879577956795C0
:1018B000BA95C9F700976105710508959B01AC01C0
:1018C0000A2E06945795479537952795BA95C9F7E7
:1018D000620F731F841F951FA01D0895F894FFCFFA
:1018E00000000C0380007374617274000000050036
:1018F0000000000000000000FF005F008C004C01B1
:10190000BD009B00AF00537461636B206F766572FE
:10191000666C6F77207768656E20747279696E6780
:1019200020746F20707573682076616C7565207403
:101930006F20737461636B2E2041626F72746564F3
:101940002E0A00537461636B20756E646572666C59
:101950006F77207768656E20747279696E6720747E
:101960006F20706F702066726F6D20737461636B8F
:101970002E2041626F727465642E0A0072756E7457
:10198000696D65206572726F722E2025730A00736F
:1019900074617274006E6F20656E74727920706F5E
:1019A000696E7400696E76616C6964207374726923
:1019B0006E67005C256300696E76616C69642073F4
:1019C0007461746520666F722070696E00696E764E
:1019D000616C69642070696E00726178007262786F
:1019E0000072637800726478007238007239007295
:1019F0003130007231310072313200723133007295
:101A0000313400723135006570006370000A094995
:101A10006E202752756E496E737472756374696FA8
:101A20006E73282927203A20756E6B6E6F776E20B3
:0C1A3000696E737472756374696F6E00E8
:107E0000112484B714BE81FFF0D085E080938100F7
:107E100082E08093C00088E18093C10086E0809377
:107E2000C20080E18093C4008EE0C9D0259A86E02C
:107E300020E33CEF91E0309385002093840096BBD3
:107E4000B09BFECF1D9AA8958150A9F7CC24DD24C4
:107E500088248394B5E0AB2EA1E19A2EF3E0BF2EE7
:107E6000A2D0813461F49FD0082FAFD0023811F036
:107E7000013811F484E001C083E08DD089C08234E0
:107E800011F484E103C0853419F485E0A6D080C0E4
:107E9000853579F488D0E82EFF2485D0082F10E0AE
:107EA000102F00270E291F29000F111F8ED06801E7
:107EB0006FC0863521F484E090D080E0DECF843638
:107EC00009F040C070D06FD0082F6DD080E0C81688
:107ED00080E7D80618F4F601B7BEE895C0E0D1E017
:107EE00062D089930C17E1F7F0E0CF16F0E7DF06D8
:107EF00018F0F601B7BEE89568D007B600FCFDCFD4
:107F0000A601A0E0B1E02C9130E011968C91119780
:107F100090E0982F8827822B932B1296FA010C0160
:107F200087BEE89511244E5F5F4FF1E0A038BF0790
:107F300051F7F601A7BEE89507B600FCFDCF97BE46
:107F4000E89526C08437B1F42ED02DD0F82E2BD052
:107F50003CD0F601EF2C8F010F5F1F4F84911BD097
:107F6000EA94F801C1F70894C11CD11CFA94CF0C13
:107F7000D11C0EC0853739F428D08EE10CD085E9AC
:107F80000AD08FE07ACF813511F488E018D01DD067
:107F900080E101D065CF982F8091C00085FFFCCF94
:107FA0009093C60008958091C00087FFFCCF809118
:107FB000C00084FD01C0A8958091C6000895E0E648
:107FC000F0E098E1908380830895EDDF803219F02E
:107FD00088E0F5DFFFCF84E1DECF1F93182FE3DFCA
:107FE0001150E9F7F2DF1F91089580E0E8DFEE27F6
:047FF000FF270994CA
:027FFE00040479
:00000001FF
