:100000000C9436000C945E000C945E000C945E0020
:100010000C945E000C945E000C945E000C945E00E8
:100020000C945E000C945E000C945E000C945E00D8
:100030000C945E000C945E000C945E000C945E00C8
:100040000C940A0F0C945E000C947A0F0C94540FCD
:100050000C945E000C945E000C945E000C945E00A8
:100060000C945E000C945E00AC0F341111241FBE82
:10007000CFEFD8E0DEBFCDBF14E0A0E0B1E0E6E90D
:10008000FEE202C005900D92A236B107D9F725E035
:10009000A2E6B4E001C01D92A831B207E1F710E07A
:1000A000C5E3D0E004C02197FE010E94FE12C433D4
:1000B000D107C9F70E9422100C943E170C9400003F
:1000C000AF92BF92CF92DF92EF92FF920F931F9366
:1000D000CF93DF936C017B018B01040F151FEB01A4
:1000E0005E01AE18BF08C017D10759F06991D6015B
:1000F000ED91FC910190F081E02DC6010995892BCD
:1001000079F7C501DF91CF911F910F91FF90EF908B
:10011000DF90CF90BF90AF900895FC01538D448D38
:10012000252F30E0842F90E0821B930B541710F0A2
:10013000CF96089501970895FC01918D828D9817AF
:1001400061F0A28DAE0FBF2FB11D5D968C91928D87
:100150009F5F9F73928F90E008958FEF9FEF0895B8
:100160002FB7F8948091670490916804A091690476
:10017000B0916A042FBF8093730490937404A0938A
:100180007504B09376048BE694E00E949C0097FF80
:1001900026C02FB7F8948091670490916804A091CD
:1001A0006904B0916A042FBF4091730450917404A4
:1001B0006091750470917604841B950BA60BB70BA8
:1001C00040916F04509170046091710470917204B9
:1001D00084179507A607B707B0F28FEF9FEF089532
:1001E000FC01918D828D981731F0828DE80FF11D01
:1001F000858D90E008958FEF9FEF0895FC01918D1C
:10020000228D892F90E0805C9F4F821B91098F7314
:10021000992708958BE694E00E94FE0021E0892B47
:1002200009F420E0822F089580E090E0892B29F0E6
:100230000E940A0181110C9400000895FC01A48D14
:10024000A80FB92FB11DA35ABF4F2C91848D90E0F8
:1002500001968F739927848FA689B7892C93A089DB
:10026000B1898C91837080648C93938D848D981365
:1002700006C00288F389E02D80818F7D80830895F8
:10028000EF92FF920F931F93CF93DF93EC0181E0E6
:10029000888F9B8D8C8D98131AC0E889F98980818D
:1002A00085FF15C09FB7F894EE89FF896083E889C0
:1002B000F98980818370806480839FBF81E090E0B2
:1002C000DF91CF911F910F91FF90EF900895F62E3F
:1002D0000B8D10E00F5F1F4F0F731127E02E8C8DD9
:1002E0008E110CC00FB607FCFACFE889F98980811E
:1002F00085FFF5CFCE010E941E01F1CFEB8DEC0FF3
:10030000FD2FF11DE35AFF4FF0829FB7F8940B8F3A
:10031000EA89FB8980818062CFCFCF93DF93EC01A4
:10032000888D8823B9F0AA89BB89E889F9898C91DD
:1003300085FD03C0808186FD0DC00FB607FCF7CF99
:100340008C9185FFF2CF808185FFEDCFCE010E9499
:100350001E01E9CFDF91CF9108958330910561F0BF
:100360002CF4019731F090E080E00895059707970D
:10037000D0F781E090E0089582E090E00895873022
:100380009105C1F1ACF48330910559F154F48130F9
:10039000910509F444C014F50196F1F184E591E06A
:1003A00008958530910519F1FCF08BE291E00895F4
:1003B0008B30910541F13CF48930910509F1ECF065
:1003C0008AE391E008958338910519F18B3B9105FB
:1003D000E9F00C9719F782E491E008958CE191E03F
:1003E000089580E291E0089584E291E0089588E222
:1003F00091E008958EE291E0089582E391E00895FE
:1004000086E391E008958EE391E0089586E491E01B
:10041000089589E491E008958CE491E0089588E1DD
:1004200091E00895FC0101900020E9F73197AF01B8
:10043000481B590BBC018BE694E00C946000FC0156
:1004400080819181009711F00C9410120895CF9340
:10045000DF93EC0169E571E00E94F713892B09F441
:10046000E5C06DE571E0CE010E94F713892B09F418
:10047000E0C062E671E0CE010E94F713892B09F417
:10048000DBC06DE373E0CE010E94F713892B09F402
:10049000D6C066E671E0CE010E94F713892B09F4FD
:1004A000D1C06BE671E0CE010E94F713892B09F4ED
:1004B000CCC06FE671E0CE010E94F713892B09F4DE
:1004C000C7C063E771E0CE010E94F713892B09F4DE
:1004D000C2C066E771E0CE010E94F713892B09F4D0
:1004E000BDC069E771E0CE010E94F713892B09F4C2
:1004F000B8C06DE771E0CE010E94F713892B09F4B3
:10050000B3C060E871E0CE010E94F713892B09F4B3
:10051000AEC064E871E0CE010E94F713892B09F4A4
:10052000A9C068E871E0CE010E94F713892B09F495
:10053000A4C06CE871E0CE010E94F713892B09F486
:100540009FC060E971E0CE010E94F713892B09F486
:100550009AC064E971E0CE010E94F713892B09F477
:1005600095C068E971E0CE010E94F713892B09F468
:1005700090C06CE971E0CE010E94F713892B09F459
:100580008BC065EA71E0CE010E94F713892B09F454
:1005900086C060EA71E0CE010E94F713892B09F44E
:1005A00081C064EA71E0CE010E94F713892B09F43F
:1005B0007CC068EA71E0CE010E94F713892B09F430
:1005C00077C06CEA71E0CE010E94F713892B09F421
:1005D00072C060EB71E0CE010E94F713892B09F421
:1005E0006DC064EB71E0CE010E94F713892B09F412
:1005F00068C06AEB71E0CE010E94F713892B09F401
:1006000063C06FEB71E0CE010E94F713892B09F4F0
:100610005EC065EC71E0CE010E94F713892B09F4EE
:1006200059C08FEF9FEFDF91CF91089590E080E068
:10063000FACF81E090E0F7CF82E090E0F4CF83E062
:1006400090E0F1CF84E090E0EECF85E090E0EBCF5A
:1006500086E090E0E8CF87E090E0E5CF88E090E0AA
:10066000E2CF89E090E0DFCF8AE090E0DCCF8BE062
:1006700090E0D9CF8CE090E0D6CF8DE090E0D3CF62
:100680008EE090E0D0CF8FE090E0CDCF80E190E0A1
:10069000CACF81E190E0C7CF82E190E0C4CF83E18F
:1006A00090E0C1CF84E190E0BECF85E190E0BBCF88
:1006B00086E190E0B8CF87E190E0B5CF88E190E0A7
:1006C000B2CF89E190E0AFCF8AE190E0ACCF8BE18F
:1006D00090E0A9CF8CE190E0A6CFCF93DF93EC011F
:1006E00068E171E00E94F713892B09F468C06CE19E
:1006F00071E0CE010E94F713892B09F463C060E218
:1007000071E0CE010E94F713892B09F45EC064E208
:1007100071E0CE010E94F713892B09F459C068E2F9
:1007200071E0CE010E94F713892B09F454C06BE2EB
:1007300071E0CE010E94F713892B09F44FC06EE2DD
:1007400071E0CE010E94F713892B09F44AC062E3DD
:1007500071E0CE010E94F713892B09F445C066E3CE
:1007600071E0CE010E94F713892B09F440C06AE3BF
:1007700071E0CE010E94F713892BE1F16EE371E085
:10078000CE010E94F713892BC1F162E471E0CE0122
:100790000E94F713892BA1F166E471E0CE010E945B
:1007A000F713892B81F169E471E0CE010E94F71300
:1007B000892B61F18FEF9FEFDF91CF91089581E059
:1007C00090E0FACF82E090E0F7CF83E090E0F4CFC2
:1007D00084E090E0F1CF85E090E0EECF86E090E01D
:1007E000EBCF87E090E0E8CF88E090E0E5CF89E0CC
:1007F00090E0E2CF8AE090E0DFCF8BE090E0DCCFCA
:100800008CE090E0D9CF8BEB90E0D6CF83E890E0FE
:10081000D3CF0F931F93CF93DF93EC0188819981FE
:10082000009759F02A813B812617370730F081E085
:10083000DF91CF911F910F9108958B016F5F7F4FD3
:100840000E940413009759F0998388831B830A83BD
:100850002C813D81232B59F7FC011082E8CF80E0E9
:10086000E7CFEF92FF920F931F93CF93DF93611522
:10087000710541F480E0DF91CF911F910F91FF90BE
:10088000EF90089541155105B1F07B01EC010C8109
:100890001D81040F151FB8010E940904882351F31C
:1008A000288139818C819D81B701820F931F0E941D
:1008B00000141D830C8381E0DECFCF92DF92EF9294
:1008C000FF920F931F93CF93DF93EC010C811D8157
:1008D000C880D980EA80FB80F801EC0DFD1D808185
:1008E000082E000C990B0E94CC13892B49F4DF9140
:1008F000CF911F910F91FF90EF90DF90CF900895CF
:100900008FEFC81AD80AE80AF80AC882D982EA82A0
:10091000FB82DECF8F929F92AF92BF92CF92DF92F7
:10092000EF92FF920F931F93CF93DF936C01EB0134
:100930008C0108541E4FF12CE12C4C018FED881ACC
:100940008DEF980A8AECA82E81E0B82EF401808100
:100950009181E816F90618F08FEF9FEF36C0DF930C
:10096000CF931F930F93BF92AF920E947F14BE014B
:10097000C8010E94F7130B5E1F4F0F900F900F904E
:100980000F900F900F90892B69F585E18E9DE00106
:100990008F9DD00D1124CC0DDD1DC753DE4F8B81F3
:1009A0008F938A818F9389818F9388818F9388ED2C
:1009B00091E09F938F930E947F14888199810F907B
:1009C0000F900F900F900F900F90DF91CF911F918C
:1009D0000F91FF90EF90DF90CF90BF90AF909F90DE
:1009E0008F900895EFEFEE1AFE0AB0CFEF92FF92CC
:1009F0000F931F93CF93DF93EC017B018A01CA0110
:100A00000E946D0346E04E9D90014F9D300D1124D4
:100A1000C20FD31F8F3F980759F0092E000CAA0B65
:100A2000BB0B88839983AA83BB8382E090E012C0CA
:100A3000C8010E943811F80120812232A1F40190EE
:100A40000020E9F732972081223269F41983088364
:100A500084E090E09D838C83DF91CF911F910F9173
:100A6000FF90EF900895688379838A839B83DDCF1D
:100A70008F929F92AF92BF92CF92DF92EF92FF92AE
:100A80000F931F93CF93DF93FC0180809180A2800E
:100A9000B380C481D581750164011C141D041E043A
:100AA0001F043CF4FE01EC0DFD1D319780818A305E
:100AB00059F5FE01E80DF91D80818A3011F0811190
:100AC00029C08C189D08AE08BF08C40101960E9479
:100AD00074118C01009721F1BE016C0D7D1DA401E4
:100AE0000E940714F801E80DF91D1082C801DF917A
:100AF000CF911F910F91FF90EF90DF90CF90BF901B
:100B0000AF909F908F900895F1E0CF1AD108E1083F
:100B1000F108C3CF8FEF881A980AA80AB80AC9CF7C
:100B200004E212E0E3CFEC017B010E9438058C0166
:100B30008B818F938A818F9389818F9388818F9303
:100B40008D858F938C858F938B858F938A858F93DB
:100B50008F858F938E858F938FEF91E09F938F93E7
:100B6000809113058F93809112058F930E94161424
:100B70008DB79EB70E960FB6F8949EBF0FBE8DBF71
:100B8000E114F104A1F0FF92EF9288E192E09F93CB
:100B90008F93809113058F93809112058F930E94FC
:100BA00016140F900F900F900F900F900F901F93AF
:100BB0000F938EE192E09F938F93809113058F9313
:100BC000809112058F930E9416140F900F900F9032
:100BD0000F900F900F90D0E0C0E0F801019000203E
:100BE000E9F73197E01BF10B609112057091130545
:100BF000CE17DF0758F085E292E00E945814C80132
:100C00000E94101290E080E00E943E178EE590E076
:100C10000E9428142196E1CF0F931F93CF93DF9367
:100C2000EC01CB018A010E94AD0131E0009709F48B
:100C300030E021E00115110509F420E0321799F0A8
:100C4000181619063CF46CE272E0012B49F070E0D2
:100C500060E006C0892BD9F7012BC9F36CE372E081
:100C6000CE010E949305DF91CF911F910F910895BE
:100C70003F924F925F926F927F928F929F92AF922C
:100C8000BF92CF92DF92EF92FF920F931F93CF9379
:100C9000DF938C01DC011496ED90FC9015978D90FC
:100CA0009D90AD90BC90F701E80DF91DD080B4E2A5
:100CB000DB126EC06330710509F0FFC089E592E078
:100CC0000E9495148AE090E00E947411EC01FC01EE
:100CD000D1927F01F80180819181A281B381019637
:100CE000A11DB11D80839183A283B383448155816B
:100CF000F80180819181A281B381FA01E80FF91F87
:100D00002081622F022E000C770B605371096A302C
:100D1000710590F12C3279F40196A11DB11DF801F5
:100D200080839183A283B383C8010E945D048AE615
:100D300092E00E949514D7011C92DF93CF938FE429
:100D400093E09F938F930E947F140F900F900F90CA
:100D50000F90CE01DF91CF911F910F91FF90EF90F7
:100D6000DF90CF90BF90AF909F908F907F906F90CB
:100D70005F904F903F900895F70121937F01019676
:100D8000A11DB11DF80180839183A283B383B0CFED
:100D900063307105E1F581E792E00E9495148CE0E3
:100DA00090E00E947411EC01D8011496AD90BC90B3
:100DB0007C0147018C1A9D0AD8014D905D906D9081
:100DC0007C906501C40CD51CF6018081082E000CB6
:100DD000990B9C01205331092A30310540F00E94C3
:100DE000C413892B21F4FE01E80DF91DEEC0BFEFFD
:100DF0004B1A5B0A6B0A7B0AF801408251826282BD
:100E00007382D6018C91F70181937F01D2CFFFE5E8
:100E1000DF1253C0CB010597079708F04EC081E859
:100E200092E00E949514F80180819181A281B381A2
:100E30000196A11DB11D80839183A283B3838FE0AE
:100E400090E00E947411EC01D8011496AD90BC9012
:100E50006C01F8014080518062807380F501E40DDF
:100E6000F51D90807601EC1AFD0AFAE39F1661F0F9
:100E7000892D092C000C990B0E94CC13892B71F041
:100E800083E992E00E949514EC0EFD1EF701329763
:100E90001082DF93CF938DE992E053CFF6019192C8
:100EA0006F01FFEF4F1A5F0A6F0A7F0AD8014D9258
:100EB0005D926D927C921397CCCF8D2D0D2C000CF2
:100EC000990BC0978A30910568F09B012150310938
:100ED0002330310538F0A2E2DA1609F4BDC0D0E0C3
:100EE000C0E037CF6130710509F082C0B2E2DB1299
:100EF0004BC087E090E00E947411EC01FC01D1929C
:100F00002FEF821A920AA20AB20AD8018D929D92FC
:100F1000AD92BC92139781E090E0D8014D915D9124
:100F20006D917C91D701A40FB51F2C9101962111D1
:100F300003C021E030E00EC04F5F5F4F6F4F7F4F27
:100F40002232D1F4D8014D935D936D937C93139726
:100F500022E030E042E240838C0F9D1FFC011082B2
:100F60002130310509F0F5CECE010E9410126DEA54
:100F700072E0C8010E9493052193D8014D935D93BF
:100F80006D937C931397C9CF0A9708F465C08CE0E2
:100F900090E00E947411EC013C01F8018080918086
:100FA000A280B3802701480C591CD201CC900C2C94
:100FB000000CDD08C6010E94CC13892B29F4C60160
:100FC0000E94C413892B19F4F3011082C2CEFFEFE3
:100FD0008F1A9F0AAF0ABF0AD8018D929D92AD92D7
:100FE000BC921397F2018081D3018D933D01D5CF3F
:100FF0006230710589F58CE090E00E947411EC017B
:101000006C0146018C1A9D0AF80140805180628073
:1010100073805701A40CB51CD5013C90832D032C83
:10102000000C990B0E94C413892B29F488EC830DC2
:10103000823008F0D8CEFFEF4F1A5F0A6F0A7F0A9E
:10104000D8014D925D926D927C921397F50180814B
:10105000D6018D936D01D5CF85E190E00E9474118A
:10106000EC01FC01D8018D909D90AD90BC90970152
:10107000280D391DD9014C91242F042E000C330B5F
:10108000205331092A30310548F01082CE17DF078E
:1010900009F05FCECE010E94101221CF4193BFEF25
:1010A0008B1A9B0AAB0ABB0AD8018D929D92AD9216
:1010B000BC921397D7CF2F923F924F925F926F922D
:1010C0007F928F929F92AF92BF92CF92DF92EF92D8
:1010D000FF920F931F93CF93DF93CDB7DEB7C55722
:1010E000D2400FB6F894DEBF0FBECDBF20910805E9
:1010F00030910905CF58DD4F39832883C157D2403D
:101100008E010F5F1F4F83E292E0D801FC011D9218
:101110003197E9F73E832D8381E090E0A0E0B0E0D5
:101120008B879C87AD87BE8784E591E0988B8F87FE
:1011300081E090E09A8B898B9E01265A3D4FC15ADF
:10114000DD4F39832883CF55D24085E0D9011D92E8
:101150008A95E9F7FE01E35CFD4FCF59DD4FF98336
:10116000E883C156D24085E111928A95E9F7C959C1
:10117000DD4F188219821A821B82C756D24026532D
:1011800031091901AE014E5A5D4FCD59DD4F5983DA
:101190004883C356D240CA010296CC58DD4F99838A
:1011A0008883C457D240DE01A35CBD4FCB59DD4FCD
:1011B000B983A883C556D24049805A806B807C8011
:1011C0008F809884A984BA84C954DE4FC880D9809E
:1011D000C75BD14084149504A604B7042CF0BFE18A
:1011E000CB16D10408F457C0DF92CF9287E094E089
:1011F0009F938F930E947F14CF58DD4F88819981F0
:10120000C157D2400E941012C954DE4F2881398143
:10121000C75BD14050E040E019A20F900F900F90B3
:101220000F908E010F5D1F4F8AE0C82ED12CE12C4C
:10123000F12CCA01B901A70196010E94DC12605D80
:10124000F80162938F01211531054105510589F798
:10125000309719F0CF010E94120280E294E00E94C0
:101260001202CB58DD4F0FB6F894DEBF0FBECDBFD4
:10127000DF91CF911F910F91FF90EF90DF90CF9072
:10128000BF90AF909F908F907F906F905F904F90A6
:101290003F902F900895ED81FE81C159DD4FF98374
:1012A000E883CF56D2407F01E40CF51C89899A89E6
:1012B000069799F4D7018C91082E000C990B0E9487
:1012C000CC13892B31F0BFEF4B1A5B0A6B0A7B0AF8
:1012D0005BC081E090E09A8B898BF70180818F352C
:1012E00051F589899A89049729F464EC72E0C80160
:1012F0000E94930581E1CB59DD4FA881B981C55684
:10130000D2401D928A95E9F7F12CE12CC25BDD4FAA
:10131000C882D982EA82FB82CE54D24084E090E037
:101320009A8B898BBFEF4B1A5B0A6B0A7B0A498247
:101330005A826B827C8249805A806B807C80C15942
:10134000DD4FE881F981CF56D240E40DF51DC35938
:10135000DD4FF983E883CD56D240F081C559DD4F8A
:10136000F883CB56D240C988DA88FB3391F425E064
:10137000C216D10491F085E090E09A8B898B3FEF03
:10138000431A530A630A730A49825A826B827C8227
:1013900013CF45E0C416D10409F55FEF451A550A8D
:1013A000650A750AC559DD4F8881CB56D2404982FE
:1013B0005A826B827C828A3009F0FECE8B859C85B6
:1013C000AD85BE850196A11DB11D8B879C87AD871C
:1013D000BE8781E090E09A8B898BEECE94E0C916AF
:1013E000D10409F0ACC0C559DD4FA881CB56D2401D
:1013F000AA3309F077C0C45BDD4F88819981CC5452
:10140000D240892B09F45BC0CE5DDD4FA880B98046
:10141000C252D240780130E020E0F90131966F01EC
:101420002A153B0509F04EC0CE5DDD4FF983E883F8
:10143000C252D24085E1829FD001839FB00D11241A
:10144000A00FB11FA854BE4FFE01E35CFD4F0190F9
:101450000D928A95E1F7CE59DD4FF881C256D24000
:10146000FF93CF59DD4F2881C156D2402F93CF5AD9
:10147000DD4F8881C155D2408F93C05BDD4F88819D
:10148000C055D2408F93C15BDD4F8881CF54D2408D
:101490008F93C25BDD4F8881CE54D2408F9388E317
:1014A00094E09F938F930E947F1485E090E09A8B45
:1014B000898B0FB6F894DEBF0FBECDBF7DCE6DED2C
:1014C00072E015CFB70168547E4FCE01835C9D4F0B
:1014D0000E94F713B5E1EB0EF11C892B09F490C4BF
:1014E00096019BCFC559DD4FF881CB56D240EF2EE8
:1014F000FF0FFF08C7010E94C413892B09F483C49E
:10150000C45BDD4F88819981CC54D2409C012F5F10
:101510003F4FC45BDD4F39832883CC54D240C3593D
:10152000DD4FA881B981CD56D2402C91EDE3F2E098
:10153000EC0FFD1F8E0F9F1FDC012C93C4CE4814AF
:1015400059046A047B040CF03FC0C559DD4FE881A3
:10155000CB56D240EE2EEE0FFF08C7010E94C413F7
:10156000892B91F5C7010E949912892B69F5C559FC
:10157000DD4FF881CB56D240F23231F17E012CEDB5
:10158000E21A2DEFF20A89E1D701E82F1D92EA95C0
:10159000E9F7C359DD4FA881B981CD56D2409C915E
:1015A000292F092E000C330B3F939F932BEE32E033
:1015B0003F932F931F928F93FF92EF920E94C0143C
:1015C000B701C8010E949305CA94CD28B1F482E006
:1015D00090E09A8B898B85E0C15ADD4FE881F981D3
:1015E000CF55D24011928A95E9F7C959DD4F18823B
:1015F00019821A821B82C756D24089899A8902971A
:1016000009F096C0481459046A047B040CF068C0C1
:10161000C359DD4FA881B981CD56D240FC908F2DA2
:101620000F2C000C990B0E94C413892B09F458C08D
:10163000BBE3FB1609F454C0EFEF4E1A5E0A6E0AC4
:101640007E0A49825A826B827C82C959DD4FC880EA
:10165000D980EA80FB80C756D240FFEFCF1ADF0A5D
:10166000EF0AFF0AC359DD4FA881B981CD56D24098
:101670008C91EAE5F2E0EC0FFD1FC959DD4F28819E
:101680003981C756D240E20FF31F8083CE01865ABC
:101690009D4F0E9427020196C1F5C159DD4F488137
:1016A0005981CF56D240440E551ED2011196AC90AE
:1016B0000A2C000CBB08C5010E94C413892B39F009
:1016C000B0E3AB1AB108EAE0AE16B104F0F0C959C4
:1016D000DD4FC882D982EA82FB82C756D2406CCDE8
:1016E000C959DD4F288139814A815B81C756D24073
:1016F000232B242B252B09F442CEC959DD4FC8805A
:10170000D980EA80FB80C756D240EAE5F2E0EC0FD0
:10171000FD1FEC0DFD1D108281E090E09A8B898BFE
:10172000C959DD4FC882D982EA82FB82C756D240AE
:10173000C05ADD4F4881C056D2404F93C15ADD4F49
:101740005881CF55D2405F9382E093E09F938F936F
:101750000E947F14CE01865A9D4F0E9427027C0171
:101760000F900F900F900F908FEFE816F806F1F49E
:1017700089E1D101E82F1D92EA95E9F7C05ADD4FC2
:10178000F881C056D240FF93C15ADD4F2881CF5512
:10179000D2402F932FE033E03F932F931F928F93EC
:1017A0003F922F920E94C014B1010BCFC8010E943A
:1017B0005D048CE0D1011D928A95E9F7C70101977C
:1017C000029788F1C7010E94AD014C01B12CA12CF8
:1017D0003701B5E06B1A710894E0492E512CA8141A
:1017E000B9040CF059C089819A81AB81BC81ED812B
:1017F000FE81E80FF91F20812C3251F40196A11DC2
:10180000B11D89839A83AB83BC83C8010E945D04A8
:10181000B701C8010E9438066C01009709F09BC00F
:101820006CE272E064CDB701C8010E9438066C0119
:10183000009791F1FC018081882371F1F1E0EF16AE
:10184000F104C1F4282F082E000C330B205331096A
:101850002A30310510F0823269F4A60170E060E0B0
:10186000C1010E94F604A60161E070E0C8010E9477
:101870000C0612C0C6010E946D03019619F463E2C2
:1018800073E035CDD1011196DC92CE9284E090E0E8
:1018900015969C938E931497CE01865A9D4F0E9465
:1018A000D4134C018B859C85C559DD4F9983888362
:1018B000CB56D240AF85B889C359DD4FB983A883D1
:1018C000CD56D24080E094E00E9474115C0188E023
:1018D000CD59DD4FE881F981C356D24011928A95E6
:1018E000E9F7C7010E94AD018130910509F4AFC14C
:1018F0008230910509F489C0892B09F07EC292E0FB
:10190000E916F10409F06BC2D10114968D919C91F6
:101910001597049709F063C211968C9111978F93D4
:101920008C918F939F928F9285ED93E09F938F93ED
:1019300084E08F931F92BF92AF920E94C014F10176
:10194000808191810E946D03CA5ADD4F99838883FB
:10195000C655D240BDC0B3E0EB16F10439F5FC0129
:101960008081843209F041C084E393E00E949514A1
:10197000D1011196DC92CE9215965C924E921497FC
:10198000DF92CF92E1E4F3E0FF93EF930E947F14A4
:10199000A60163E070E0C8010E940C060F900F9052
:1019A0000F900F905FEFA51AB50A19CF37E06316B5
:1019B0007104D8F4BC01C8010E948A04019609F49C
:1019C0006BCFB601C8010E948A04092E000CAA0B35
:1019D000BB0BF10180839183A283B38382E090E00B
:1019E00095838483A601B70141CFDF92CF9227E48C
:1019F00033E03F932F930E947F14A601B501C101EC
:101A00000E94F604A601B701C6CFD1011496CD906D
:101A1000DC90B3E0EB16F10409F062C0E4E0CE160E
:101A2000D10409F0D2C0D101ED91FC9180818432C2
:101A300009F0CBC08BE593E00E949514F101708012
:101A40006180CC5ADD4F7882C455D240CB5ADD4FED
:101A50006882C555D240C680D780CA5ADD4FC88239
:101A6000C655D240C95ADD4FD882C755D240DF9201
:101A7000CF9289E693E09F938F930E947F146F9299
:101A80007F9286E793E09F938F930E947F14C60115
:101A90000E94BF019F938F93D10113968C9113974E
:101AA0008F9312968C9112978F9311968C91119718
:101AB0008F938C918F939F928F9286E893E09F9360
:101AC0008F9384E08F931F92BF92AF920E94C014B5
:101AD0000FB6F894DEBF0FBECDBFD12CC12CF5C020
:101AE000F2E0CF16D10439F4D1011A968D919C9170
:101AF000029709F46AC0C8010E9438058C018C81E4
:101B00008F938B818F938A818F9389818F938E8519
:101B10008F938D858F938C858F938B858F938889F9
:101B20008F938F858F9381E993E09F938F9380911B
:101B300013058F93809112058F930E94161488EAE3
:101B400093E09F938F9388E192E09F938F9380918E
:101B500013058F93809112058F930E9416141F9383
:101B60000F938EE192E09F938F93809113058F9353
:101B7000809112058F930E9416140FB6F894DEBF61
:101B80000FBECDBFF12CE12CF80101900020E9F748
:101B90003197E01BF10B6091120570911305EE1661
:101BA000FF0658F08AE090E00E942814C8010E94C5
:101BB000101282E090E00E943E178EE590E00E94B5
:101BC0002814FFEFEF1AFF0ADFCFD1014D905D908F
:101BD0006D907C901397CC5ADD4F488259826A826F
:101BE0007B82C455D24016968D919C91CA5ADD4F86
:101BF00099838883C655D2400E94BF01C159DD4FE9
:101C00008883CF56D240CD58DD4F9883C357D240FA
:101C1000C2010E94BF01CD58DD4FB881C357D240E9
:101C2000BF93C159DD4FE881CF56D240EF939F93C8
:101C30008F939F928F928DEB93E09F938F9384E08D
:101C40008F931F92BF92AF920E94C01439C0D101EE
:101C50001496CD90DC90B1E0EB16F10409F073C05E
:101C6000E4E0CE16D10409F06EC0D1018D919C91B3
:101C70000E946D03019609F466C087EC93E00E9410
:101C80009514F10181818F9380818F939F928F9220
:101C900085ED93E09F938F9384E08F931F92BF9283
:101CA000AF920E94C014F10180819181A281B38121
:101CB000CC5ADD4F88839983AA83BB83C455D24015
:101CC0000FB6F894DEBF0FBECDBFCC5ADD4F4880B3
:101CD00059806A807B80C455D240C4010E94101292
:101CE000C954DE4F88819981C75BD1409C012F5F29
:101CF0003F4FC954DE4F39832883C75BD1402EE064
:101D0000289FF001299FF00D11247296E00FF11F1A
:101D1000F182E0824282538264827582D782C682D7
:101D2000A086B186C359DD4F88819981CD56D240B6
:101D300093878287C559DD4FA881B981CB56D240A0
:101D4000B587A48739CA86E0F101CC58DD4FA88158
:101D5000B981C457D24001900D928A95E1F734E0E1
:101D6000C316D104D1F4CB5ADD4F8881C555D2407A
:101D70008F93CC5ADD4F8881C455D2408F939F9268
:101D80008F928BED93E09F938F9384E08F931F92BC
:101D9000BF92AF920E94C01493CFC60101970297E1
:101DA00008F093CFC95ADD4F8881C755D2408F9331
:101DB000CA5ADD4F8881C655D2408F93CB5ADD4F2A
:101DC0008881C555D2408F93CC5ADD4F8881C45548
:101DD000D2408F939F928F9283EE93E02ECF9F926B
:101DE0008F928EE893E09F938F9384E08F931F925E
:101DF000BF92AF920E94C0146BCE6AEE73E077CAB6
:101E000063E274E074CA481459046A047B040CF059
:101E1000F4CBA8CB1F920F920FB60F9211242F93E1
:101E20003F938F939F93AF93BF938091670490915B
:101E30006804A0916904B0916A043091660423E0BB
:101E4000230F2D3758F50196A11DB11D209366046F
:101E50008093670490936804A0936904B0936A0424
:101E60008091620490916304A0916404B091650430
:101E70000196A11DB11D8093620490936304A09309
:101E80006404B0936504BF91AF919F918F913F918E
:101E90002F910F900FBE0F901F90189526E8230FDB
:101EA0000296A11DB11DD2CF1F920F920FB60F92B5
:101EB00011242F933F934F935F936F937F938F934F
:101EC0009F93AF93BF93EF93FF938BE694E00E94B1
:101ED0001E01FF91EF91BF91AF919F918F917F91E3
:101EE0006F915F914F913F912F910F900FBE0F9087
:101EF0001F9018951F920F920FB60F9211242F93D7
:101F00008F939F93EF93FF93E0917B04F0917C0478
:101F10008081E0918104F091820482FD1BC0908158
:101F2000809184048F5F8F7320918504821741F024
:101F3000E0918404F0E0E559FB4F958F8093840491
:101F4000FF91EF919F918F912F910F900FBE0F9066
:101F50001F9018958081F4CF10926E0410926D043A
:101F600088EE93E0A0E0B0E080936F04909370045B
:101F7000A0937104B09372048AE091E090936C0492
:101F800080936B0485EC90E09093780480937704C1
:101F900084EC90E090937A048093790480EC90E054
:101FA00090937C0480937B0481EC90E090937E047A
:101FB00080937D0482EC90E09093800480937F0472
:101FC00086EC90E0909382048093810410928404C4
:101FD00010928504109286041092870410920905CD
:101FE0001092080510920B0510920A0510920D052B
:101FF00010920C0570E060E088E095E00E94090412
:102000002091080530910905811113C02115310572
:1020100019F0C9010E9410121092090510920805CA
:1020200010920D0510920C0510920B0510920A05E6
:10203000089510920D0510920C0564E272E0C9013A
:102040000C940014CF93DF93CDB7DEB728970FB66B
:10205000F894DEBF0FBECDBF789484B5826084BD96
:1020600084B5816084BD85B5826085BD85B581609C
:1020700085BD80916E00816080936E00109281001A
:1020800080918100826080938100809181008160D5
:102090008093810080918000816080938000809196
:1020A000B10084608093B1008091B0008160809322
:1020B000B00080917A00846080937A0080917A00E9
:1020C000826080937A0080917A00816080937A00A8
:1020D00080917A00806880937A001092C100E0912C
:1020E0007B04F0917C0482E08083E0917704F0919E
:1020F00078041082E0917904F0917A048FEC808367
:1021000010928304E0917F04F091800486E0808344
:10211000E0917D04F0917E04808180618083E09174
:102120007D04F0917E04808188608083E0917D044D
:10213000F0917E04808180688083E0917D04F0913D
:102140007E0480818F7D808382E494E00E9412026D
:1021500080E294E00E94120200E010E08AE0F82E93
:102160008BE694E00E94FE00892B09F45DC01A8280
:1021700019821C821B821E821D8270E060E0CE01EB
:1021800001960E94090429813A8181111FC02115FD
:10219000310519F0C9010E9410121A8219821E829B
:1021A0001D821C821B820E94B00097FD17C08A30DE
:1021B0009105A1F08F83188641E050E0BE01695F70
:1021C0007F4FCE0101960E943104EDCF1E821D8209
:1021D00064E272E0C9010E940014E5CF8D819E8106
:1021E000892B71F167E474E089819A810E94F71369
:1021F000892B31F58BE494E00E94120280E294E096
:102200000E94120240910C0550910D056091080545
:10221000709109058BE694E00E9460000E945B08C3
:10222000CE0101960E941F020115110509F498CFF5
:102230000E940A01882309F493CF0E94000090CFE6
:10224000FF82188641E050E0BE01695F7F4FCE01FA
:1022500001960E9431044D815E8169817A8188E016
:1022600095E00E943104DCCF88E095E00C941F02D9
:102270001F93FC0199278827BC01E8941191103223
:10228000E9F3193010F01E30C8F31B3251F01D3243
:1022900049F4689406C00E945F11610F711D811D91
:1022A000911D119110531A30B0F33EF49095809522
:1022B000709561957F4F8F4F9F4F1F910895592FB4
:1022C000482F372F262F660F771F881F991F660FFD
:1022D000771F881F991F620F731F841F951F660F3A
:1022E000771F881F991F08950F931F93CF93DF9334
:1022F0008230910510F482E090E0E0911605F091B3
:10230000170530E020E0B0E0A0E0309799F4211507
:10231000310509F44AC0281B390B24303105D8F5A2
:102320008A819B816115710589F1FB019383828309
:10233000FE0111C040815181028113814817590764
:10234000E0F04817590799F4109761F012960C9332
:10235000129713961C933296CF01DF91CF911F9164
:102360000F9108950093160510931705F4CF2115CA
:10237000310551F04217530738F0A901DB019A01EA
:10238000BD01DF01F801C1CFEF01F9CF909317052F
:1023900080931605CDCFFE01E20FF31F8193919339
:1023A0002250310939832883D7CF209114053091E9
:1023B0001505232B41F42091020130910301309344
:1023C000150520931405209100013091010121157C
:1023D000310541F42DB73EB74091040150910501FC
:1023E000241B350BE0911405F0911505E217F30756
:1023F000A0F42E1B3F0B2817390778F0AC014E5F75
:102400005F4F2417350748F04E0F5F1F5093150597
:1024100040931405819391939FCFF0E0E0E09CCF2F
:10242000CF93DF930097E9F0FC0132971382128279
:10243000A0911605B0911705ED0130E020E010974E
:10244000A1F420813181820F931F209114053091D6
:1024500015052817390709F061C0F0931505E093B9
:102460001405DF91CF910895EA01CE17DF07E8F553
:102470004A815B819E0141155105B1F7E901FB835A
:10248000EA8349915991C40FD51FEC17FD0761F4F8
:10249000808191810296840F951FE9019983888339
:1024A000828193819B838A83F0E0E0E012968D9194
:1024B0009C9113970097B9F52D913C911197CD01FF
:1024C0000296820F931F209114053091150528174D
:1024D000390739F6309751F5109217051092160505
:1024E000B0931505A0931405BCCFD383C28340815C
:1024F0005181840F951FC817D90761F44E5F5F4F54
:1025000088819981480F591F518340838A819B811B
:10251000938382832115310509F0B0CFF09317051D
:10252000E09316059ECFFD01DC01C0CF138212821D
:10253000D7CF91110C94A212803219F08950855096
:10254000C8F708959927882708952F923F924F92B0
:102550005F926F927F928F929F92AF92BF92CF9233
:10256000DF92EF92FF920F931F93CF93DF93CDB73C
:10257000DEB7CA1BDB0B0FB6F894DEBF0FBECDBFB4
:1025800009942A88398848885F846E847D848C8485
:102590009B84AA84B984C884DF80EE80FD800C818E
:1025A0001B81AA81B981CE0FD11D0FB6F894DEBF71
:1025B0000FBECDBFED010895A1E21A2EAA1BBB1BD1
:1025C000FD010DC0AA1FBB1FEE1FFF1FA217B307FF
:1025D000E407F50720F0A21BB30BE40BF50B661F15
:1025E000771F881F991F1A9469F7609570958095D9
:1025F00090959B01AC01BD01CF010895EE0FFF1F27
:102600000590F491E02D0994B0E0A0E0EAE0F3E158
:102610000C94A7128C01009751F4CB010E94741105
:102620008C01C801CDB7DEB7E0E10C94C312FC0108
:10263000E60FF71F9C0122503109E217F30708F457
:102640009DC0D901CD91DC911197C617D70798F09D
:10265000C530D10530F3CE0104978617970708F3EC
:10266000C61BD70B2297C193D1936D937C93CF0157
:102670000E941012D6CF5B01AC1ABD0A4C018C0E21
:102680009D1EA0911605B0911705512C412CF12CDF
:10269000E12C109731F5809114059091150588155E
:1026A000990509F05CC04616570608F058C080919D
:1026B000000190910101009741F48DB79EB74091C0
:1026C000040150910501841B950BE817F90708F0E8
:1026D00055C0F0931505E0931405F90171836083EB
:1026E000A0CF8D919C91119712966C901297139692
:1026F0007C901397A815B90559F56C0142E0C40EFA
:10270000D11CCA14DB0420F1AC014A195B09DA01BF
:102710001296159780F06282738251834083D901AB
:102720006D937C93E114F10471F0D7011396FC933F
:10273000EE93129776CF22968C0F9D1FF90191830D
:102740008083F301EFCFF0931705E093160569CF6F
:102750004816590608F42C017D01D3019ACFCB010C
:102760000E9474117C01009749F0AE01B8010E94EB
:10277000EE13C8010E941012870153CF10E000E051
:1027800050CF85FD0C94A212806291110C94A2127C
:1027900081568A51D8F7089591110C94A212803273
:1027A00011F08930D1F708950F931F93CF93DF93E2
:1027B0008C01FC0101900020E9F7CF01801B910BF7
:1027C0000E947411EC01009719F0B8010E940014E6
:1027D000CE01DF91CF911F910F910895FB01DC0194
:1027E00002C001900D9241505040D8F70895FB016E
:1027F000DC018D91019080190110D9F3990B089596
:10280000FB01DC0101900D920020E1F70895FB012E
:10281000DC014150504048F001900D920020C9F772
:1028200001C01D9241505040E0F70895B0E0A0E093
:10283000ECE1F4E10C94B512AE01475F5F4F6F819C
:1028400078858D819E810E94F014E2E00C94D11273
:102850000F931F93CF93DF93182F092FEB018B81D9
:1028600081FD09C01FEF0FEF812F902FDF91CF91D6
:102870001F910F91089582FF14C02E813F818C819A
:102880009D81281739073CF4E881F981CF01019631
:102890009983888310838E819F8101969F838E8385
:1028A000E3CFE885F985812F0995892BA1F3DACF4C
:1028B000EF92FF920F931F93CF93DF93FB0123813E
:1028C00021FF19C0EB018C01F12CE12CF801819161
:1028D0008F01811106C0C701CDB7DEB7E6E00C94C9
:1028E000CD12E885F985BE010995892B79F3EE248F
:1028F000EA94FE2CEBCFEE24EA94FE2CECCFB0E071
:10290000A0E0E5E8F4E10C94B512AE014B5F5F4F37
:10291000FA0161917191AF018091100590911105BB
:102920000E94F014E2E00C94D1120F931F93CF9306
:10293000DF93E0911005F09111052381EC0110E087
:1029400000E021FD08C00FEF1FEF14C00995892B8F
:1029500011F00FEF1FEF8991609110057091110533
:10296000DB011896ED91FC918111F0CF8AE0099579
:10297000892B49F7C801DF91CF911F910F910895DD
:10298000AEE0B0E0E6ECF4E10C94B3120D891E89E0
:102990008F89988D26E02C831A83098397FF02C0C4
:1029A00080E090E801979E838D83AE01455E5F4F86
:1029B000698D7A8DCE0101960E94F0144D815E8161
:1029C00057FD0AC02F813885421753070CF49A012E
:1029D000020F131FF80110822E96E4E00C94CF1220
:1029E000ABE0B0E0E6EFF4E10C94A5127C013B0112
:1029F0008A01FC0117821682838181FFC8C1CE0142
:102A000001965C01F7019381F30193FD859193FF9A
:102A100081913F01882309F453C1853239F493FD34
:102A2000859193FF81913F01853229F4B70190E0B0
:102A30000E942814E7CF912C212C312CFFE1F315B3
:102A400038F08B3211F190F4803209F1833229F1A0
:102A500037FC3CC020ED280F2A3050F536FE20C050
:102A60008AE0989E200D1124922E06C08D3291F09E
:102A7000803371F7689430F8F30193FD859193FFEB
:102A800081913F018111DACF21C0689431F86894B7
:102A900032F8F2CF689433F8EFCF689434F8ECCF83
:102AA000EAE02E9E200D1124222E689435F8E4CF02
:102AB0008E3229F436FC04C1689436F8DDCF8C36AA
:102AC00019F4689437F8D8CF8836B1F2982F9F7DE3
:102AD00095549330E0F08336A1F18337C1F183350B
:102AE00009F063C02801F2E04F0E511CF801C080CC
:102AF000D180692D70E036FC02C06FEF7FEFC60118
:102B00000E94CA164C01689437F882010AC00C5F13
:102B10001F4FFFE3F98388248394912C6501E89487
:102B200037F833FE2DC0522C8114910471F55520D5
:102B300009F468CFB70180E290E00E9428145A940B
:102B4000F6CFF801808189830E5F1F4FE4CF280103
:102B5000F2E04F0E511CF801C080D180692D70E069
:102B600036FC02C06FEF7FEFC6010E94D5164C0104
:102B70008201D5CFB70180E290E00E9428142A9408
:102B80002814190409F0B0F7CECFF60137FC85916F
:102B900037FE81916F01B70190E00E942814511017
:102BA0005A94F1E08F1A9108BFCF843619F0893614
:102BB00009F077C0F80137FE6BC0608171818281B6
:102BC00093810C5F1F4FF32DFF763F2E97FF09C0B7
:102BD00090958095709561957F4F8F4F9F4F68942A
:102BE00037F82AE030E0A5010E94E016C82ECA1886
:102BF0008C2C432C36FE0CC0E89440F8C91440F4E9
:102C000034FE05C032FC03C0F32DFE7E4F2E892C0E
:102C100044FE95C0FE01EC0DF11D8081803309F06A
:102C200087C0242D297E422E842D8870582E43FC87
:102C300095C040FE8FC09C2C821418F42C0C922C52
:102C4000981844FE91C0B70180E390E00E942814D8
:102C500042FE09C088E790E041FE02C088E590E0AE
:102C6000B7010E942814C91408F48AC0CA94D12C50
:102C70009FEFC91AD90ACA0CDB1CF60182916F01B9
:102C8000B70190E00E942814AC14BD04B1F74FCFF7
:102C900060817181072E000C880B990B0E5F1F4F0E
:102CA00092CFD32CE894D4F82AE030E0853739F17C
:102CB000232D297FD22E8F3601F148F48835A9F0D3
:102CC000F701868197812B96E2E10C94C11280373F
:102CD00049F08837A9F7D4FE02C06894D2F820E101
:102CE00030E00DC06894D4F8F6CF34FE03C0822FD4
:102CF0008660D82E20E132E002C028E030E0F80102
:102D0000D7FE0FC060817181828193810C5F1F4F5C
:102D1000A5010E94E016C82ECA183D2CE89437F889
:102D200067CF6081718190E080E00E5F1F4FF0CF30
:102D300042FC02C0839478CF8394839475CF842D12
:102D4000867809F471CFF6CFB70180E290E00E9457
:102D5000281483948214C0F3512C73CF522C58182A
:102D6000821408F46ECFF8CF842D867809F47BCFD7
:102D70008BE241FE80E247FC8DE2B70190E071CF2B
:102D8000B70180E390E00E9428149A946CCF8FEFF3
:102D90009FEF99CFFC010590615070400110D8F76A
:102DA000809590958E0F9F1F0895FC016150704093
:102DB00001900110D8F7809590958E0F9F1F089570
:102DC000FA01AA27283051F1203181F1E8946F935C
:102DD0006E7F6E5F7F4F8F4F9F4FAF4FB1E03ED002
:102DE000B4E03CD0670F781F891F9A1FA11D680FA0
:102DF000791F8A1F911DA11D6A0F711D811D911DD3
:102E0000A11D20D009F468943F912AE0269F112447
:102E10003019305D3193DEF6CF010895462F4770AB
:102E2000405D4193B3E00FD0C9F7F6CF462F4F7006
:102E3000405D4A3318F0495D31FD4052419302D064
:102E4000A9F7EACFB4E0A69597958795779567950A
:102E5000BA95C9F700976105710508959B01AC010A
:102E60000A2E06945795479537952795BA95C9F731
:102E7000620F731F841F951FA01D089510E0C5E306
:102E8000D0E004C0FE010E94FE122196C633D10795
:062E9000C9F7F894FFCF22
:102E960000001805800000000000400160008D0061
:102EA6008D01FE009C00F00072617800726278006D
:102EB6007263780072647800723800723900723179
:102EC60030007231310072313200723133007231AA
:102ED600340072313500657000637000756E6B6E7C
:102EE6006F776E006E6F6E65006E6F700070757333
:102EF6006800706F700073776170006A6D70006AA9
:102F06006E65006A65006A67006A6765006A6C003C
:102F16006A6C650061646400737562006D756C00AF
:102F2600646976006D6F64006E656700414E44000B
:102F36004E4F5400584F520073686C00736872000D
:102F460064757000636C6561720073697A65007000
:102F560072696E740065786974006C3A2025732C6A
:102F6600206E3A2025730A00666F756E64206C61C8
:102F760062656C2E20696E737472756374696F6E08
:102F8600732073746172742061742025640A0025AD
:102F9600733A256C643A256C643A2073796E7461D1
:102FA60078206572726F7200202D202573000A0941
:102FB60025730A090020686572650A006D697373D6
:102FC600696E67206F706572616E640070617373FD
:102FD600696E6720756E6E6563636573736172797A
:102FE600206F706572616E640050617273696E67FE
:102FF60020636F6E7374616E7400737061636564D1
:10300600006E6F726D616C207265676973746572AC
:10301600004D6F76696E6720746F2061206C616267
:10302600656C00697320626C616E6B2E006C616268
:10303600656C2069733A20272573270A006D69732A
:1030460073696E672071756F746174696F6E206D38
:1030560061726B00756E7265636F676E697A65641F
:10306600206C6162656C20746F6B656E00756E6EA8
:10307600616D6564206C6162656C00756E6B6E6F68
:10308600776E2063686172616374657220272563B9
:1030960027006B6579776F72643A2025730A00758D
:1030A6006E6B6E6F776E206F70636F646520272579
:1030B600732700696E76616C69642072656769734F
:1030C60074657200636F6E7374616E74206D6F76D3
:1030D600002D2025730A006F706572616E64207082
:1030E60061727365643A2025730A00497320612072
:1030F600636F6E7374616E740064657374206973B4
:1031060020256C640A00636F6E7374616E742069A7
:10311600732025730A002573202425642C2025732B
:103126000025733A256C643A256C643A20747970EC
:1031360065206572726F7200657870656374656488
:1031460020493634206F706572616E6400257320E5
:1031560025732C202573004F6E20612072656769E8
:10316600737465720025732025730025732022254C
:10317600732200257320256C6400696E636F72727A
:10318600656374206E756D626572206F66206F7060
:103196006572616E647300506172736564202564A4
:1031A60020696E737472756374696F6E732E0A008C
:1031B6000D0A006475706C6963617465206C6162E8
:1031C600656C206E616D6500256C64205F25733A21
:1031D6000A004C69766500454F460052656365698D
:1031E60076656420616C6C20636F6E74656E7473B3
:0231F6002E00A9
:00000001FF
